{
  "_format": "hh-sol-artifact-1",
  "contractName": "TrustRegistry",
  "sourceName": "src/TrustRegistry.sol",
  "abi": [
    {
      "inputs": [],
      "stateMutability": "nonpayable",
      "type": "constructor"
    },
    {
      "anonymous": false,
      "inputs": [
        {
          "indexed": true,
          "internalType": "address",
          "name": "citizen",
          "type": "address"
        }
      ],
      "name": "CitizenRegistered",
      "type": "event"
    },
    {
      "anonymous": false,
      "inputs": [
        {
          "indexed": true,
          "internalType": "address",
          "name": "citizenDid",
          "type": "address"
        },
        {
          "indexed": true,
          "internalType": "address",
          "name": "issuer",
          "type": "address"
        },
        {
          "indexed": false,
          "internalType": "bytes32",
          "name": "documentHash",
          "type": "bytes32"
        },
        {
          "indexed": false,
          "internalType": "bytes",
          "name": "signature",
          "type": "bytes"
        }
      ],
      "name": "DocumentAnchored",
      "type": "event"
    },
    {
      "anonymous": false,
      "inputs": [
        {
          "indexed": true,
          "internalType": "address",
          "name": "applicant",
          "type": "address"
        }
      ],
      "name": "IssuerApplied",
      "type": "event"
    },
    {
      "anonymous": false,
      "inputs": [
        {
          "indexed": true,
          "internalType": "address",
          "name": "issuer",
          "type": "address"
        }
      ],
      "name": "IssuerApproved",
      "type": "event"
    },
    {
      "anonymous": false,
      "inputs": [
        {
          "indexed": true,
          "internalType": "uint256",
          "name": "requestId",
          "type": "uint256"
        }
      ],
      "name": "RequestRejected",
      "type": "event"
    },
    {
      "anonymous": false,
      "inputs": [
        {
          "indexed": true,
          "internalType": "uint256",
          "name": "requestId",
          "type": "uint256"
        },
        {
          "indexed": true,
          "internalType": "address",
          "name": "citizen",
          "type": "address"
        },
        {
          "indexed": true,
          "internalType": "address",
          "name": "issuer",
          "type": "address"
        },
        {
          "indexed": false,
          "internalType": "bytes32",
          "name": "documentHash",
          "type": "bytes32"
        },
        {
          "indexed": false,
          "internalType": "string",
          "name": "ipfsHash",
          "type": "string"
        },
        {
          "indexed": false,
          "internalType": "string",
          "name": "documentType",
          "type": "string"
        }
      ],
      "name": "VerificationRequested",
      "type": "event"
    },
    {
      "anonymous": false,
      "inputs": [
        {
          "indexed": true,
          "internalType": "address",
          "name": "applicant",
          "type": "address"
        }
      ],
      "name": "VerifierApplied",
      "type": "event"
    },
    {
      "anonymous": false,
      "inputs": [
        {
          "indexed": true,
          "internalType": "address",
          "name": "verifier",
          "type": "address"
        }
      ],
      "name": "VerifierApproved",
      "type": "event"
    },
    {
      "inputs": [],
      "name": "admin",
      "outputs": [
        {
          "internalType": "address",
          "name": "",
          "type": "address"
        }
      ],
      "stateMutability": "view",
      "type": "function"
    },
    {
      "inputs": [
        {
          "internalType": "bytes32",
          "name": "documentHash",
          "type": "bytes32"
        },
        {
          "internalType": "address",
          "name": "citizenDid",
          "type": "address"
        },
        {
          "internalType": "bytes",
          "name": "signature",
          "type": "bytes"
        }
      ],
      "name": "anchorDocument",
      "outputs": [],
      "stateMutability": "nonpayable",
      "type": "function"
    },
    {
      "inputs": [
        {
          "internalType": "address",
          "name": "",
          "type": "address"
        }
      ],
      "name": "anchoredDocuments",
      "outputs": [
        {
          "internalType": "bytes32",
          "name": "documentHash",
          "type": "bytes32"
        },
        {
          "internalType": "address",
          "name": "issuer",
          "type": "address"
        },
        {
          "internalType": "bytes",
          "name": "signature",
          "type": "bytes"
        },
        {
          "internalType": "uint256",
          "name": "anchoredAt",
          "type": "uint256"
        }
      ],
      "stateMutability": "view",
      "type": "function"
    },
    {
      "inputs": [
        {
          "internalType": "string",
          "name": "_name",
          "type": "string"
        }
      ],
      "name": "applyIssuer",
      "outputs": [],
      "stateMutability": "nonpayable",
      "type": "function"
    },
    {
      "inputs": [
        {
          "internalType": "string",
          "name": "_name",
          "type": "string"
        }
      ],
      "name": "applyVerifier",
      "outputs": [],
      "stateMutability": "nonpayable",
      "type": "function"
    },
    {
      "inputs": [
        {
          "internalType": "address",
          "name": "applicant",
          "type": "address"
        }
      ],
      "name": "approveIssuer",
      "outputs": [],
      "stateMutability": "nonpayable",
      "type": "function"
    },
    {
      "inputs": [
        {
          "internalType": "address",
          "name": "applicant",
          "type": "address"
        }
      ],
      "name": "approveVerifier",
      "outputs": [],
      "stateMutability": "nonpayable",
      "type": "function"
    },
    {
      "inputs": [
        {
          "internalType": "address",
          "name": "citizenDid",
          "type": "address"
        }
      ],
      "name": "getAnchoredDocument",
      "outputs": [
        {
          "internalType": "bytes32",
          "name": "documentHash",
          "type": "bytes32"
        },
        {
          "internalType": "address",
          "name": "issuer",
          "type": "address"
        },
        {
          "internalType": "bytes",
          "name": "signature",
          "type": "bytes"
        },
        {
          "internalType": "uint256",
          "name": "anchoredAt",
          "type": "uint256"
        }
      ],
      "stateMutability": "view",
      "type": "function"
    },
    {
      "inputs": [],
      "name": "getApprovedIssuers",
      "outputs": [
        {
          "internalType": "address[]",
          "name": "",
          "type": "address[]"
        }
      ],
      "stateMutability": "view",
      "type": "function"
    },
    {
      "inputs": [],
      "name": "getApprovedIssuersDetails",
      "outputs": [
        {
          "components": [
            {
              "internalType": "address",
              "name": "addr",
              "type": "address"
            },
            {
              "internalType": "string",
              "name": "name",
              "type": "string"
            }
          ],
          "internalType": "struct TrustRegistry.IssuerInfo[]",
          "name": "",
          "type": "tuple[]"
        }
      ],
      "stateMutability": "view",
      "type": "function"
    },
    {
      "inputs": [
        {
          "internalType": "address",
          "name": "_citizen",
          "type": "address"
        }
      ],
      "name": "getCitizenRequests",
      "outputs": [
        {
          "components": [
            {
              "internalType": "uint256",
              "name": "id",
              "type": "uint256"
            },
            {
              "internalType": "address",
              "name": "citizen",
              "type": "address"
            },
            {
              "internalType": "address",
              "name": "issuer",
              "type": "address"
            },
            {
              "internalType": "bytes32",
              "name": "documentHash",
              "type": "bytes32"
            },
            {
              "internalType": "string",
              "name": "ipfsHash",
              "type": "string"
            },
            {
              "internalType": "string",
              "name": "documentType",
              "type": "string"
            },
            {
              "internalType": "uint256",
              "name": "timestamp",
              "type": "uint256"
            },
            {
              "internalType": "bool",
              "name": "isAnchored",
              "type": "bool"
            },
            {
              "internalType": "bool",
              "name": "isRejected",
              "type": "bool"
            }
          ],
          "internalType": "struct TrustRegistry.VerificationRequest[]",
          "name": "",
          "type": "tuple[]"
        }
      ],
      "stateMutability": "view",
      "type": "function"
    },
    {
      "inputs": [],
      "name": "getIssuerApplicationDetails",
      "outputs": [
        {
          "components": [
            {
              "internalType": "address",
              "name": "addr",
              "type": "address"
            },
            {
              "internalType": "string",
              "name": "name",
              "type": "string"
            }
          ],
          "internalType": "struct TrustRegistry.IssuerInfo[]",
          "name": "",
          "type": "tuple[]"
        }
      ],
      "stateMutability": "view",
      "type": "function"
    },
    {
      "inputs": [],
      "name": "getIssuerApplications",
      "outputs": [
        {
          "internalType": "address[]",
          "name": "",
          "type": "address[]"
        }
      ],
      "stateMutability": "view",
      "type": "function"
    },
    {
      "inputs": [
        {
          "internalType": "address",
          "name": "issuer",
          "type": "address"
        }
      ],
      "name": "getIssuerPendingRequests",
      "outputs": [
        {
          "components": [
            {
              "internalType": "uint256",
              "name": "id",
              "type": "uint256"
            },
            {
              "internalType": "address",
              "name": "citizen",
              "type": "address"
            },
            {
              "internalType": "address",
              "name": "issuer",
              "type": "address"
            },
            {
              "internalType": "bytes32",
              "name": "documentHash",
              "type": "bytes32"
            },
            {
              "internalType": "string",
              "name": "ipfsHash",
              "type": "string"
            },
            {
              "internalType": "string",
              "name": "documentType",
              "type": "string"
            },
            {
              "internalType": "uint256",
              "name": "timestamp",
              "type": "uint256"
            },
            {
              "internalType": "bool",
              "name": "isAnchored",
              "type": "bool"
            },
            {
              "internalType": "bool",
              "name": "isRejected",
              "type": "bool"
            }
          ],
          "internalType": "struct TrustRegistry.VerificationRequest[]",
          "name": "",
          "type": "tuple[]"
        }
      ],
      "stateMutability": "view",
      "type": "function"
    },
    {
      "inputs": [
        {
          "internalType": "address",
          "name": "user",
          "type": "address"
        }
      ],
      "name": "getUserRole",
      "outputs": [
        {
          "internalType": "enum TrustRegistry.Role",
          "name": "role",
          "type": "uint8"
        },
        {
          "internalType": "bool",
          "name": "isApproved",
          "type": "bool"
        },
        {
          "internalType": "string",
          "name": "departmentName",
          "type": "string"
        }
      ],
      "stateMutability": "view",
      "type": "function"
    },
    {
      "inputs": [],
      "name": "getVerifierApplicationDetails",
      "outputs": [
        {
          "components": [
            {
              "internalType": "address",
              "name": "addr",
              "type": "address"
            },
            {
              "internalType": "string",
              "name": "name",
              "type": "string"
            }
          ],
          "internalType": "struct TrustRegistry.IssuerInfo[]",
          "name": "",
          "type": "tuple[]"
        }
      ],
      "stateMutability": "view",
      "type": "function"
    },
    {
      "inputs": [],
      "name": "getVerifierApplications",
      "outputs": [
        {
          "internalType": "address[]",
          "name": "",
          "type": "address[]"
        }
      ],
      "stateMutability": "view",
      "type": "function"
    },
    {
      "inputs": [
        {
          "internalType": "address",
          "name": "",
          "type": "address"
        }
      ],
      "name": "isAuthorizedIssuer",
      "outputs": [
        {
          "internalType": "bool",
          "name": "",
          "type": "bool"
        }
      ],
      "stateMutability": "view",
      "type": "function"
    },
    {
      "inputs": [
        {
          "internalType": "address",
          "name": "",
          "type": "address"
        }
      ],
      "name": "isAuthorizedVerifier",
      "outputs": [
        {
          "internalType": "bool",
          "name": "",
          "type": "bool"
        }
      ],
      "stateMutability": "view",
      "type": "function"
    },
    {
      "inputs": [
        {
          "internalType": "address",
          "name": "",
          "type": "address"
        }
      ],
      "name": "issuers",
      "outputs": [
        {
          "internalType": "string",
          "name": "name",
          "type": "string"
        },
        {
          "internalType": "bool",
          "name": "isApproved",
          "type": "bool"
        },
        {
          "internalType": "bool",
          "name": "exists",
          "type": "bool"
        }
      ],
      "stateMutability": "view",
      "type": "function"
    },
    {
      "inputs": [],
      "name": "nextRequestId",
      "outputs": [
        {
          "internalType": "uint256",
          "name": "",
          "type": "uint256"
        }
      ],
      "stateMutability": "view",
      "type": "function"
    },
    {
      "inputs": [],
      "name": "registerCitizen",
      "outputs": [],
      "stateMutability": "nonpayable",
      "type": "function"
    },
    {
      "inputs": [
        {
          "internalType": "uint256",
          "name": "requestId",
          "type": "uint256"
        }
      ],
      "name": "rejectRequest",
      "outputs": [],
      "stateMutability": "nonpayable",
      "type": "function"
    },
    {
      "inputs": [
        {
          "internalType": "address",
          "name": "issuer",
          "type": "address"
        },
        {
          "internalType": "bytes32",
          "name": "documentHash",
          "type": "bytes32"
        },
        {
          "internalType": "string",
          "name": "ipfsHash",
          "type": "string"
        },
        {
          "internalType": "string",
          "name": "_documentType",
          "type": "string"
        }
      ],
      "name": "requestVerification",
      "outputs": [
        {
          "internalType": "uint256",
          "name": "requestId",
          "type": "uint256"
        }
      ],
      "stateMutability": "nonpayable",
      "type": "function"
    },
    {
      "inputs": [
        {
          "internalType": "address",
          "name": "",
          "type": "address"
        }
      ],
      "name": "users",
      "outputs": [
        {
          "internalType": "enum TrustRegistry.Role",
          "name": "role",
          "type": "uint8"
        },
        {
          "internalType": "bool",
          "name": "isApproved",
          "type": "bool"
        },
        {
          "internalType": "string",
          "name": "departmentName",
          "type": "string"
        }
      ],
      "stateMutability": "view",
      "type": "function"
    },
    {
      "inputs": [
        {
          "internalType": "uint256",
          "name": "",
          "type": "uint256"
        }
      ],
      "name": "verificationRequests",
      "outputs": [
        {
          "internalType": "uint256",
          "name": "id",
          "type": "uint256"
        },
        {
          "internalType": "address",
          "name": "citizen",
          "type": "address"
        },
        {
          "internalType": "address",
          "name": "issuer",
          "type": "address"
        },
        {
          "internalType": "bytes32",
          "name": "documentHash",
          "type": "bytes32"
        },
        {
          "internalType": "string",
          "name": "ipfsHash",
          "type": "string"
        },
        {
          "internalType": "string",
          "name": "documentType",
          "type": "string"
        },
        {
          "internalType": "uint256",
          "name": "timestamp",
          "type": "uint256"
        },
        {
          "internalType": "bool",
          "name": "isAnchored",
          "type": "bool"
        },
        {
          "internalType": "bool",
          "name": "isRejected",
          "type": "bool"
        }
      ],
      "stateMutability": "view",
      "type": "function"
    },
    {
      "inputs": [
        {
          "internalType": "address",
          "name": "",
          "type": "address"
        }
      ],
      "name": "verifiers",
      "outputs": [
        {
          "internalType": "string",
          "name": "name",
          "type": "string"
        },
        {
          "internalType": "bool",
          "name": "isApproved",
          "type": "bool"
        },
        {
          "internalType": "bool",
          "name": "exists",
          "type": "bool"
        }
      ],
      "stateMutability": "view",
      "type": "function"
    }
  ],
  "bytecode": "0x60a060405234801561001057600080fd5b503373ffffffffffffffffffffffffffffffffffffffff1660808173ffffffffffffffffffffffffffffffffffffffff16815250506080516153e461008a60003960008181610fd1015281816122550152818161272c01528181612d44015281816130d1015281816137970152613c9801526153e46000f3fe608060405234801561001057600080fd5b50600436106101a95760003560e01c80636c824487116100f9578063a87430ba11610097578063dcc5c93711610071578063dcc5c9371461051b578063e2f7f96414610537578063e7a82d7414610555578063f851a44014610588576101a9565b8063a87430ba146104af578063aae3536f146104e1578063cfc197b0146104ff576101a9565b80637b56d734116100d35780637b56d7341461044f5780637beaaf561461046d57806382deb86e14610489578063907de2cc146104a5576101a9565b80636c824487146103cf5780636cacbf30146104015780637a2e0da514610431576101a9565b806331ba19661161016657806352d46fcc1161014057806352d46fcc1461031e5780635323c2bf146103515780635965e4ff146103815780636a84a985146103b1576101a9565b806331ba19661461028457806338a7543e146102b45780634089d49f146102e6576101a9565b806307fc9b34146101ae57806312648e34146101cc578063162c98ee146101fc5780631a2269a61461021857806327820851146102365780632d7788db14610268575b600080fd5b6101b66105a6565b6040516101c39190613f39565b60405180910390f35b6101e660048036038101906101e19190613f91565b610780565b6040516101f39190614199565b60405180910390f35b6102166004803603810190610211919061424c565b610b76565b005b610220610fcd565b60405161022d919061436f565b60405180910390f35b610250600480360381019061024b9190613f91565b6110e9565b60405161025f93929190614461565b60405180910390f35b610282600480360381019061027d91906144cb565b611240565b005b61029e60048036038101906102999190613f91565b611432565b6040516102ab91906144f8565b60405180910390f35b6102ce60048036038101906102c99190613f91565b611452565b6040516102dd93929190614513565b60405180910390f35b61030060048036038101906102fb91906144cb565b61151e565b6040516103159998979695949392919061457e565b60405180910390f35b61033860048036038101906103339190613f91565b6116d6565b604051610348949392919061466e565b60405180910390f35b61036b60048036038101906103669190614710565b6117ae565b60405161037891906147b7565b60405180910390f35b61039b60048036038101906103969190613f91565b611ca9565b6040516103a89190614199565b60405180910390f35b6103b96120d1565b6040516103c691906147b7565b60405180910390f35b6103e960048036038101906103e49190613f91565b6120d7565b6040516103f893929190614513565b60405180910390f35b61041b60048036038101906104169190613f91565b6121a3565b60405161042891906144f8565b60405180910390f35b6104396121c3565b604051610446919061436f565b60405180910390f35b610457612251565b604051610464919061436f565b60405180910390f35b610487600480360381019061048291906147d2565b61236d565b005b6104a3600480360381019061049e9190613f91565b61272a565b005b6104ad612a93565b005b6104c960048036038101906104c49190613f91565b612c74565b6040516104d893929190614461565b60405180910390f35b6104e9612d40565b6040516104f69190613f39565b60405180910390f35b61051960048036038101906105149190613f91565b6130cf565b005b610535600480360381019061053091906147d2565b6133d5565b005b61053f613793565b60405161054c9190613f39565b60405180910390f35b61056f600480360381019061056a9190613f91565b613b22565b60405161057f949392919061466e565b60405180910390f35b610590613c96565b60405161059d919061481f565b60405180910390f35b60606000600a8054905067ffffffffffffffff8111156105c9576105c861483a565b5b60405190808252806020026020018201604052801561060257816020015b6105ef613cba565b8152602001906001900390816105e75790505b50905060005b600a80549050811015610778576000600a828154811061062b5761062a614869565b5b9060005260206000200160009054906101000a900473ffffffffffffffffffffffffffffffffffffffff16905060405180604001604052808273ffffffffffffffffffffffffffffffffffffffff1681526020016000808473ffffffffffffffffffffffffffffffffffffffff1673ffffffffffffffffffffffffffffffffffffffff16815260200190815260200160002060010180546106cb906148c7565b80601f01602080910402602001604051908101604052809291908181526020018280546106f7906148c7565b80156107445780601f1061071957610100808354040283529160200191610744565b820191906000526020600020905b81548152906001019060200180831161072757829003601f168201915b505050505081525083838151811061075f5761075e614869565b5b6020026020010181905250508080600101915050610608565b508091505090565b6060600080600090505b600654811015610819578373ffffffffffffffffffffffffffffffffffffffff166005600083815260200190815260200160002060010160009054906101000a900473ffffffffffffffffffffffffffffffffffffffff1673ffffffffffffffffffffffffffffffffffffffff160361080c57818061080890614927565b9250505b808060010191505061078a565b5060008167ffffffffffffffff8111156108365761083561483a565b5b60405190808252806020026020018201604052801561086f57816020015b61085c613cea565b8152602001906001900390816108545790505b509050600080600090505b600654811015610b6a578573ffffffffffffffffffffffffffffffffffffffff166005600083815260200190815260200160002060010160009054906101000a900473ffffffffffffffffffffffffffffffffffffffff1673ffffffffffffffffffffffffffffffffffffffff1603610b5d576005600082815260200190815260200160002060405180610120016040529081600082015481526020016001820160009054906101000a900473ffffffffffffffffffffffffffffffffffffffff1673ffffffffffffffffffffffffffffffffffffffff1673ffffffffffffffffffffffffffffffffffffffff1681526020016002820160009054906101000a900473ffffffffffffffffffffffffffffffffffffffff1673ffffffffffffffffffffffffffffffffffffffff1673ffffffffffffffffffffffffffffffffffffffff168152602001600382015481526020016004820180546109dc906148c7565b80601f0160208091040260200160405190810160405280929190818152602001828054610a08906148c7565b8015610a555780601f10610a2a57610100808354040283529160200191610a55565b820191906000526020600020905b815481529060010190602001808311610a3857829003601f168201915b50505050508152602001600582018054610a6e906148c7565b80601f0160208091040260200160405190810160405280929190818152602001828054610a9a906148c7565b8015610ae75780601f10610abc57610100808354040283529160200191610ae7565b820191906000526020600020905b815481529060010190602001808311610aca57829003601f168201915b50505050508152602001600682015481526020016007820160009054906101000a900460ff161515151581526020016007820160019054906101000a900460ff161515151581525050838381518110610b4357610b42614869565b5b60200260200101819052508180610b5990614927565b9250505b808060010191505061087a565b50819350505050919050565b600360003373ffffffffffffffffffffffffffffffffffffffff1673ffffffffffffffffffffffffffffffffffffffff16815260200190815260200160002060009054906101000a900460ff16610c02576040517f08c379a0000000000000000000000000000000000000000000000000000000008152600401610bf9906149bb565b60405180910390fd5b60016003811115610c1657610c15614391565b5b6000808573ffffffffffffffffffffffffffffffffffffffff1673ffffffffffffffffffffffffffffffffffffffff16815260200190815260200160002060000160009054906101000a900460ff166003811115610c7757610c76614391565b5b14610cb7576040517f08c379a0000000000000000000000000000000000000000000000000000000008152600401610cae90614a27565b60405180910390fd5b6000805b600654811015610dee5760006005600083815260200190815260200160002090508060070160009054906101000a900460ff16158015610d4a57503373ffffffffffffffffffffffffffffffffffffffff168160020160009054906101000a900473ffffffffffffffffffffffffffffffffffffffff1673ffffffffffffffffffffffffffffffffffffffff16145b8015610da557508573ffffffffffffffffffffffffffffffffffffffff168160010160009054906101000a900473ffffffffffffffffffffffffffffffffffffffff1673ffffffffffffffffffffffffffffffffffffffff16145b8015610db45750868160030154145b15610de05760018160070160006101000a81548160ff0219169083151502179055506001925050610dee565b508080600101915050610cbb565b5080610e2f576040517f08c379a0000000000000000000000000000000000000000000000000000000008152600401610e2690614a93565b60405180910390fd5b60405180608001604052808681526020013373ffffffffffffffffffffffffffffffffffffffff16815260200184848080601f016020809104026020016040519081016040528093929190818152602001838380828437600081840152601f19601f82011690508083019250505050505050815260200142815250600760008673ffffffffffffffffffffffffffffffffffffffff1673ffffffffffffffffffffffffffffffffffffffff1681526020019081526020016000206000820151816000015560208201518160010160006101000a81548173ffffffffffffffffffffffffffffffffffffffff021916908373ffffffffffffffffffffffffffffffffffffffff1602179055506040820151816002019081610f4f9190614c5f565b50606082015181600301559050503373ffffffffffffffffffffffffffffffffffffffff168473ffffffffffffffffffffffffffffffffffffffff167f257e34c89d33fdcdf3a925d80e4ca5eba21aeb381fbb47f4cd86c80d42fa8f16878686604051610fbe93929190614d6d565b60405180910390a35050505050565b60607f000000000000000000000000000000000000000000000000000000000000000073ffffffffffffffffffffffffffffffffffffffff163373ffffffffffffffffffffffffffffffffffffffff161461105d576040517f08c379a000000000000000000000000000000000000000000000000000000000815260040161105490614deb565b60405180910390fd5b60098054806020026020016040519081016040528092919081815260200182805480156110df57602002820191906000526020600020905b8160009054906101000a900473ffffffffffffffffffffffffffffffffffffffff1673ffffffffffffffffffffffffffffffffffffffff1681526020019060010190808311611095575b5050505050905090565b600080606060008060008673ffffffffffffffffffffffffffffffffffffffff1673ffffffffffffffffffffffffffffffffffffffff1681526020019081526020016000206040518060600160405290816000820160009054906101000a900460ff16600381111561115e5761115d614391565b5b60038111156111705761116f614391565b5b81526020016000820160019054906101000a900460ff1615151515815260200160018201805461119f906148c7565b80601f01602080910402602001604051908101604052809291908181526020018280546111cb906148c7565b80156112185780601f106111ed57610100808354040283529160200191611218565b820191906000526020600020905b8154815290600101906020018083116111fb57829003601f168201915b5050505050815250509050806000015181602001518260400151935093509350509193909250565b600360003373ffffffffffffffffffffffffffffffffffffffff1673ffffffffffffffffffffffffffffffffffffffff16815260200190815260200160002060009054906101000a900460ff166112cc576040517f08c379a00000000000000000000000000000000000000000000000000000000081526004016112c3906149bb565b60405180910390fd5b60006005600083815260200190815260200160002090503373ffffffffffffffffffffffffffffffffffffffff168160020160009054906101000a900473ffffffffffffffffffffffffffffffffffffffff1673ffffffffffffffffffffffffffffffffffffffff1614611375576040517f08c379a000000000000000000000000000000000000000000000000000000000815260040161136c90614e57565b60405180910390fd5b8060070160009054906101000a900460ff16156113c7576040517f08c379a00000000000000000000000000000000000000000000000000000000081526004016113be90614ec3565b60405180910390fd5b60018160070160006101000a81548160ff02191690831515021790555060018160070160016101000a81548160ff021916908315150217905550817f1fdac08e93f72ff55b24ebdf4152b7f56b98982fe9249639c1010cc52aebccd660405160405180910390a25050565b60036020528060005260406000206000915054906101000a900460ff1681565b6001602052806000526040600020600091509050806000018054611475906148c7565b80601f01602080910402602001604051908101604052809291908181526020018280546114a1906148c7565b80156114ee5780601f106114c3576101008083540402835291602001916114ee565b820191906000526020600020905b8154815290600101906020018083116114d157829003601f168201915b5050505050908060010160009054906101000a900460ff16908060010160019054906101000a900460ff16905083565b60056020528060005260406000206000915090508060000154908060010160009054906101000a900473ffffffffffffffffffffffffffffffffffffffff16908060020160009054906101000a900473ffffffffffffffffffffffffffffffffffffffff1690806003015490806004018054611599906148c7565b80601f01602080910402602001604051908101604052809291908181526020018280546115c5906148c7565b80156116125780601f106115e757610100808354040283529160200191611612565b820191906000526020600020905b8154815290600101906020018083116115f557829003601f168201915b505050505090806005018054611627906148c7565b80601f0160208091040260200160405190810160405280929190818152602001828054611653906148c7565b80156116a05780601f10611675576101008083540402835291602001916116a0565b820191906000526020600020905b81548152906001019060200180831161168357829003601f168201915b5050505050908060060154908060070160009054906101000a900460ff16908060070160019054906101000a900460ff16905089565b60076020528060005260406000206000915090508060000154908060010160009054906101000a900473ffffffffffffffffffffffffffffffffffffffff1690806002018054611725906148c7565b80601f0160208091040260200160405190810160405280929190818152602001828054611751906148c7565b801561179e5780601f106117735761010080835404028352916020019161179e565b820191906000526020600020905b81548152906001019060200180831161178157829003601f168201915b5050505050908060030154905084565b6000806000803373ffffffffffffffffffffffffffffffffffffffff1673ffffffffffffffffffffffffffffffffffffffff1681526020019081526020016000206040518060600160405290816000820160009054906101000a900460ff16600381111561181f5761181e614391565b5b600381111561183157611830614391565b5b81526020016000820160019054906101000a900460ff16151515158152602001600182018054611860906148c7565b80601f016020809104026020016040519081016040528092919081815260200182805461188c906148c7565b80156118d95780601f106118ae576101008083540402835291602001916118d9565b820191906000526020600020905b8154815290600101906020018083116118bc57829003601f168201915b5050505050815250509050600160038111156118f8576118f7614391565b5b8160000151600381111561190f5761190e614391565b5b14801561191d575080602001515b61195c576040517f08c379a000000000000000000000000000000000000000000000000000000000815260040161195390614f2f565b60405180910390fd5b600360008973ffffffffffffffffffffffffffffffffffffffff1673ffffffffffffffffffffffffffffffffffffffff16815260200190815260200160002060009054906101000a900460ff166119e8576040517f08c379a00000000000000000000000000000000000000000000000000000000081526004016119df90614f9b565b60405180910390fd5b60065491506040518061012001604052808381526020013373ffffffffffffffffffffffffffffffffffffffff1681526020018973ffffffffffffffffffffffffffffffffffffffff16815260200188815260200187878080601f016020809104026020016040519081016040528093929190818152602001838380828437600081840152601f19601f82011690508083019250505050505050815260200185858080601f016020809104026020016040519081016040528093929190818152602001838380828437600081840152601f19601f82011690508083019250505050505050815260200142815260200160001515815260200160001515815250600560008481526020019081526020016000206000820151816000015560208201518160010160006101000a81548173ffffffffffffffffffffffffffffffffffffffff021916908373ffffffffffffffffffffffffffffffffffffffff16021790555060408201518160020160006101000a81548173ffffffffffffffffffffffffffffffffffffffff021916908373ffffffffffffffffffffffffffffffffffffffff160217905550606082015181600301556080820151816004019081611bb19190615016565b5060a0820151816005019081611bc79190615016565b5060c0820151816006015560e08201518160070160006101000a81548160ff0219169083151502179055506101008201518160070160016101000a81548160ff021916908315150217905550905050600160066000828254611c2991906150e8565b925050819055508773ffffffffffffffffffffffffffffffffffffffff163373ffffffffffffffffffffffffffffffffffffffff16837fae718418a8eefe9ceab90293e8a24cafee62abed779de7b6840a15a4679bd4278a8a8a8a8a604051611c96959493929190615149565b60405180910390a4509695505050505050565b6060600080600090505b600654811015611d645760006005600083815260200190815260200160002090508473ffffffffffffffffffffffffffffffffffffffff168160020160009054906101000a900473ffffffffffffffffffffffffffffffffffffffff1673ffffffffffffffffffffffffffffffffffffffff16148015611d4257508060070160009054906101000a900460ff16155b15611d56578280611d5290614927565b9350505b508080600101915050611cb3565b5060008167ffffffffffffffff811115611d8157611d8061483a565b5b604051908082528060200260200182016040528015611dba57816020015b611da7613cea565b815260200190600190039081611d9f5790505b509050600080600090505b6006548110156120c55760006005600083815260200190815260200160002090508673ffffffffffffffffffffffffffffffffffffffff168160020160009054906101000a900473ffffffffffffffffffffffffffffffffffffffff1673ffffffffffffffffffffffffffffffffffffffff16148015611e5457508060070160009054906101000a900460ff16155b156120b7578060405180610120016040529081600082015481526020016001820160009054906101000a900473ffffffffffffffffffffffffffffffffffffffff1673ffffffffffffffffffffffffffffffffffffffff1673ffffffffffffffffffffffffffffffffffffffff1681526020016002820160009054906101000a900473ffffffffffffffffffffffffffffffffffffffff1673ffffffffffffffffffffffffffffffffffffffff1673ffffffffffffffffffffffffffffffffffffffff16815260200160038201548152602001600482018054611f36906148c7565b80601f0160208091040260200160405190810160405280929190818152602001828054611f62906148c7565b8015611faf5780601f10611f8457610100808354040283529160200191611faf565b820191906000526020600020905b815481529060010190602001808311611f9257829003601f168201915b50505050508152602001600582018054611fc8906148c7565b80601f0160208091040260200160405190810160405280929190818152602001828054611ff4906148c7565b80156120415780601f1061201657610100808354040283529160200191612041565b820191906000526020600020905b81548152906001019060200180831161202457829003601f168201915b50505050508152602001600682015481526020016007820160009054906101000a900460ff161515151581526020016007820160019054906101000a900460ff16151515158152505084848151811061209d5761209c614869565b5b602002602001018190525082806120b390614927565b9350505b508080600101915050611dc5565b50819350505050919050565b60065481565b60026020528060005260406000206000915090508060000180546120fa906148c7565b80601f0160208091040260200160405190810160405280929190818152602001828054612126906148c7565b80156121735780601f1061214857610100808354040283529160200191612173565b820191906000526020600020905b81548152906001019060200180831161215657829003601f168201915b5050505050908060010160009054906101000a900460ff16908060010160019054906101000a900460ff16905083565b60046020528060005260406000206000915054906101000a900460ff1681565b6060600a80548060200260200160405190810160405280929190818152602001828054801561224757602002820191906000526020600020905b8160009054906101000a900473ffffffffffffffffffffffffffffffffffffffff1673ffffffffffffffffffffffffffffffffffffffff16815260200190600101908083116121fd575b5050505050905090565b60607f000000000000000000000000000000000000000000000000000000000000000073ffffffffffffffffffffffffffffffffffffffff163373ffffffffffffffffffffffffffffffffffffffff16146122e1576040517f08c379a00000000000000000000000000000000000000000000000000000000081526004016122d890614deb565b60405180910390fd5b600880548060200260200160405190810160405280929190818152602001828054801561236357602002820191906000526020600020905b8160009054906101000a900473ffffffffffffffffffffffffffffffffffffffff1673ffffffffffffffffffffffffffffffffffffffff1681526020019060010190808311612319575b5050505050905090565b600082829050116123b3576040517f08c379a00000000000000000000000000000000000000000000000000000000081526004016123aa906151de565b60405180910390fd5b600060038111156123c7576123c6614391565b5b6000803373ffffffffffffffffffffffffffffffffffffffff1673ffffffffffffffffffffffffffffffffffffffff16815260200190815260200160002060000160009054906101000a900460ff16600381111561242857612427614391565b5b14612468576040517f08c379a000000000000000000000000000000000000000000000000000000000815260040161245f9061524a565b60405180910390fd5b604051806060016040528083838080601f016020809104026020016040519081016040528093929190818152602001838380828437600081840152601f19601f82011690508083019250505050505050815260200160001515815260200160011515815250600260003373ffffffffffffffffffffffffffffffffffffffff1673ffffffffffffffffffffffffffffffffffffffff16815260200190815260200160002060008201518160000190816125219190615016565b5060208201518160010160006101000a81548160ff02191690831515021790555060408201518160010160016101000a81548160ff021916908315150217905550905050604051806060016040528060038081111561258357612582614391565b5b815260200160001515815260200183838080601f016020809104026020016040519081016040528093929190818152602001838380828437600081840152601f19601f820116905080830192505050505050508152506000803373ffffffffffffffffffffffffffffffffffffffff1673ffffffffffffffffffffffffffffffffffffffff16815260200190815260200160002060008201518160000160006101000a81548160ff0219169083600381111561264257612641614391565b5b021790555060208201518160000160016101000a81548160ff021916908315150217905550604082015181600101908161267c9190615016565b509050506009339080600181540180825580915050600190039060005260206000200160009091909190916101000a81548173ffffffffffffffffffffffffffffffffffffffff021916908373ffffffffffffffffffffffffffffffffffffffff1602179055503373ffffffffffffffffffffffffffffffffffffffff167f75fb76cb43c0e3cc3d8124eea38b30de867708e958ff60f06f1b5374fb0a4b5e60405160405180910390a25050565b7f000000000000000000000000000000000000000000000000000000000000000073ffffffffffffffffffffffffffffffffffffffff163373ffffffffffffffffffffffffffffffffffffffff16146127b8576040517f08c379a00000000000000000000000000000000000000000000000000000000081526004016127af90614deb565b60405180910390fd5b60008060008373ffffffffffffffffffffffffffffffffffffffff1673ffffffffffffffffffffffffffffffffffffffff16815260200190815260200160002090506002600381111561280e5761280d614391565b5b8160000160009054906101000a900460ff16600381111561283257612831614391565b5b14612872576040517f08c379a0000000000000000000000000000000000000000000000000000000008152600401612869906152b6565b60405180910390fd5b8060000160019054906101000a900460ff16156128c4576040517f08c379a00000000000000000000000000000000000000000000000000000000081526004016128bb90615322565b60405180910390fd5b60018160000160016101000a81548160ff021916908315150217905550600160008373ffffffffffffffffffffffffffffffffffffffff1673ffffffffffffffffffffffffffffffffffffffff16815260200190815260200160002060010160019054906101000a900460ff16156129915760018060008473ffffffffffffffffffffffffffffffffffffffff1673ffffffffffffffffffffffffffffffffffffffff16815260200190815260200160002060010160006101000a81548160ff0219169083151502179055505b6001600360008473ffffffffffffffffffffffffffffffffffffffff1673ffffffffffffffffffffffffffffffffffffffff16815260200190815260200160002060006101000a81548160ff021916908315150217905550600a829080600181540180825580915050600190039060005260206000200160009091909190916101000a81548173ffffffffffffffffffffffffffffffffffffffff021916908373ffffffffffffffffffffffffffffffffffffffff1602179055508173ffffffffffffffffffffffffffffffffffffffff167f98733e3bf5d792e3092c41611bfc6e1257e92ee3606413ec61366471eabd9ad960405160405180910390a25050565b60006003811115612aa757612aa6614391565b5b6000803373ffffffffffffffffffffffffffffffffffffffff1673ffffffffffffffffffffffffffffffffffffffff16815260200190815260200160002060000160009054906101000a900460ff166003811115612b0857612b07614391565b5b14612b48576040517f08c379a0000000000000000000000000000000000000000000000000000000008152600401612b3f9061524a565b60405180910390fd5b604051806060016040528060016003811115612b6757612b66614391565b5b8152602001600115158152602001604051806020016040528060008152508152506000803373ffffffffffffffffffffffffffffffffffffffff1673ffffffffffffffffffffffffffffffffffffffff16815260200190815260200160002060008201518160000160006101000a81548160ff02191690836003811115612bf157612bf0614391565b5b021790555060208201518160000160016101000a81548160ff0219169083151502179055506040820151816001019081612c2b9190615016565b509050503373ffffffffffffffffffffffffffffffffffffffff167fb5598409719558ebd54a454803d5d44a0b2ae7d77be5ea208f6a3b9698a2cb5860405160405180910390a2565b60006020528060005260406000206000915090508060000160009054906101000a900460ff16908060000160019054906101000a900460ff1690806001018054612cbd906148c7565b80601f0160208091040260200160405190810160405280929190818152602001828054612ce9906148c7565b8015612d365780601f10612d0b57610100808354040283529160200191612d36565b820191906000526020600020905b815481529060010190602001808311612d1957829003601f168201915b5050505050905083565b60607f000000000000000000000000000000000000000000000000000000000000000073ffffffffffffffffffffffffffffffffffffffff163373ffffffffffffffffffffffffffffffffffffffff1614612dd0576040517f08c379a0000000000000000000000000000000000000000000000000000000008152600401612dc790614deb565b60405180910390fd5b600080600090505b600980549050811015612e925760008060098381548110612dfc57612dfb614869565b5b9060005260206000200160009054906101000a900473ffffffffffffffffffffffffffffffffffffffff1673ffffffffffffffffffffffffffffffffffffffff1673ffffffffffffffffffffffffffffffffffffffff16815260200190815260200160002060000160019054906101000a900460ff16612e85578180612e8190614927565b9250505b8080600101915050612dd8565b5060008167ffffffffffffffff811115612eaf57612eae61483a565b5b604051908082528060200260200182016040528015612ee857816020015b612ed5613cba565b815260200190600190039081612ecd5790505b509050600080600090505b6009805490508110156130c557600060098281548110612f1657612f15614869565b5b9060005260206000200160009054906101000a900473ffffffffffffffffffffffffffffffffffffffff1690506000808273ffffffffffffffffffffffffffffffffffffffff1673ffffffffffffffffffffffffffffffffffffffff16815260200190815260200160002060000160019054906101000a900460ff166130b75760405180604001604052808273ffffffffffffffffffffffffffffffffffffffff1681526020016000808473ffffffffffffffffffffffffffffffffffffffff1673ffffffffffffffffffffffffffffffffffffffff1681526020019081526020016000206001018054613009906148c7565b80601f0160208091040260200160405190810160405280929190818152602001828054613035906148c7565b80156130825780601f1061305757610100808354040283529160200191613082565b820191906000526020600020905b81548152906001019060200180831161306557829003601f168201915b505050505081525084848151811061309d5761309c614869565b5b602002602001018190525082806130b390614927565b9350505b508080600101915050612ef3565b5081935050505090565b7f000000000000000000000000000000000000000000000000000000000000000073ffffffffffffffffffffffffffffffffffffffff163373ffffffffffffffffffffffffffffffffffffffff161461315d576040517f08c379a000000000000000000000000000000000000000000000000000000000815260040161315490614deb565b60405180910390fd5b60008060008373ffffffffffffffffffffffffffffffffffffffff1673ffffffffffffffffffffffffffffffffffffffff16815260200190815260200160002090506003808111156131b2576131b1614391565b5b8160000160009054906101000a900460ff1660038111156131d6576131d5614391565b5b14613216576040517f08c379a000000000000000000000000000000000000000000000000000000000815260040161320d9061538e565b60405180910390fd5b8060000160019054906101000a900460ff1615613268576040517f08c379a000000000000000000000000000000000000000000000000000000000815260040161325f90615322565b60405180910390fd5b60018160000160016101000a81548160ff021916908315150217905550600260008373ffffffffffffffffffffffffffffffffffffffff1673ffffffffffffffffffffffffffffffffffffffff16815260200190815260200160002060010160019054906101000a900460ff1615613336576001600260008473ffffffffffffffffffffffffffffffffffffffff1673ffffffffffffffffffffffffffffffffffffffff16815260200190815260200160002060010160006101000a81548160ff0219169083151502179055505b6001600460008473ffffffffffffffffffffffffffffffffffffffff1673ffffffffffffffffffffffffffffffffffffffff16815260200190815260200160002060006101000a81548160ff0219169083151502179055508173ffffffffffffffffffffffffffffffffffffffff167f9380731c3187619dd665ab116dd0419cf0c2f741528f3d6fae906ea1c9fbc15c60405160405180910390a25050565b6000828290501161341b576040517f08c379a0000000000000000000000000000000000000000000000000000000008152600401613412906151de565b60405180910390fd5b6000600381111561342f5761342e614391565b5b6000803373ffffffffffffffffffffffffffffffffffffffff1673ffffffffffffffffffffffffffffffffffffffff16815260200190815260200160002060000160009054906101000a900460ff1660038111156134905761348f614391565b5b146134d0576040517f08c379a00000000000000000000000000000000000000000000000000000000081526004016134c79061524a565b60405180910390fd5b604051806060016040528083838080601f016020809104026020016040519081016040528093929190818152602001838380828437600081840152601f19601f82011690508083019250505050505050815260200160001515815260200160011515815250600160003373ffffffffffffffffffffffffffffffffffffffff1673ffffffffffffffffffffffffffffffffffffffff16815260200190815260200160002060008201518160000190816135899190615016565b5060208201518160010160006101000a81548160ff02191690831515021790555060408201518160010160016101000a81548160ff0219169083151502179055509050506040518060600160405280600260038111156135ec576135eb614391565b5b815260200160001515815260200183838080601f016020809104026020016040519081016040528093929190818152602001838380828437600081840152601f19601f820116905080830192505050505050508152506000803373ffffffffffffffffffffffffffffffffffffffff1673ffffffffffffffffffffffffffffffffffffffff16815260200190815260200160002060008201518160000160006101000a81548160ff021916908360038111156136ab576136aa614391565b5b021790555060208201518160000160016101000a81548160ff02191690831515021790555060408201518160010190816136e59190615016565b509050506008339080600181540180825580915050600190039060005260206000200160009091909190916101000a81548173ffffffffffffffffffffffffffffffffffffffff021916908373ffffffffffffffffffffffffffffffffffffffff1602179055503373ffffffffffffffffffffffffffffffffffffffff167f4af0d9e22ae30e4db6547df2548d6b2d8ddbaa801de04d02d970458cb06b1e4860405160405180910390a25050565b60607f000000000000000000000000000000000000000000000000000000000000000073ffffffffffffffffffffffffffffffffffffffff163373ffffffffffffffffffffffffffffffffffffffff1614613823576040517f08c379a000000000000000000000000000000000000000000000000000000000815260040161381a90614deb565b60405180910390fd5b600080600090505b6008805490508110156138e5576000806008838154811061384f5761384e614869565b5b9060005260206000200160009054906101000a900473ffffffffffffffffffffffffffffffffffffffff1673ffffffffffffffffffffffffffffffffffffffff1673ffffffffffffffffffffffffffffffffffffffff16815260200190815260200160002060000160019054906101000a900460ff166138d85781806138d490614927565b9250505b808060010191505061382b565b5060008167ffffffffffffffff8111156139025761390161483a565b5b60405190808252806020026020018201604052801561393b57816020015b613928613cba565b8152602001906001900390816139205790505b509050600080600090505b600880549050811015613b185760006008828154811061396957613968614869565b5b9060005260206000200160009054906101000a900473ffffffffffffffffffffffffffffffffffffffff1690506000808273ffffffffffffffffffffffffffffffffffffffff1673ffffffffffffffffffffffffffffffffffffffff16815260200190815260200160002060000160019054906101000a900460ff16613b0a5760405180604001604052808273ffffffffffffffffffffffffffffffffffffffff1681526020016000808473ffffffffffffffffffffffffffffffffffffffff1673ffffffffffffffffffffffffffffffffffffffff1681526020019081526020016000206001018054613a5c906148c7565b80601f0160208091040260200160405190810160405280929190818152602001828054613a88906148c7565b8015613ad55780601f10613aaa57610100808354040283529160200191613ad5565b820191906000526020600020905b815481529060010190602001808311613ab857829003601f168201915b5050505050815250848481518110613af057613aef614869565b5b60200260200101819052508280613b0690614927565b9350505b508080600101915050613946565b5081935050505090565b6000806060600080600760008773ffffffffffffffffffffffffffffffffffffffff1673ffffffffffffffffffffffffffffffffffffffff168152602001908152602001600020604051806080016040529081600082015481526020016001820160009054906101000a900473ffffffffffffffffffffffffffffffffffffffff1673ffffffffffffffffffffffffffffffffffffffff1673ffffffffffffffffffffffffffffffffffffffff168152602001600282018054613be4906148c7565b80601f0160208091040260200160405190810160405280929190818152602001828054613c10906148c7565b8015613c5d5780601f10613c3257610100808354040283529160200191613c5d565b820191906000526020600020905b815481529060010190602001808311613c4057829003601f168201915b50505050508152602001600382015481525050905080600001518160200151826040015183606001519450945094509450509193509193565b7f000000000000000000000000000000000000000000000000000000000000000081565b6040518060400160405280600073ffffffffffffffffffffffffffffffffffffffff168152602001606081525090565b60405180610120016040528060008152602001600073ffffffffffffffffffffffffffffffffffffffff168152602001600073ffffffffffffffffffffffffffffffffffffffff168152602001600080191681526020016060815260200160608152602001600081526020016000151581526020016000151581525090565b600081519050919050565b600082825260208201905092915050565b6000819050602082019050919050565b600073ffffffffffffffffffffffffffffffffffffffff82169050919050565b6000613dc082613d95565b9050919050565b613dd081613db5565b82525050565b600081519050919050565b600082825260208201905092915050565b60005b83811015613e10578082015181840152602081019050613df5565b60008484015250505050565b6000601f19601f8301169050919050565b6000613e3882613dd6565b613e428185613de1565b9350613e52818560208601613df2565b613e5b81613e1c565b840191505092915050565b6000604083016000830151613e7e6000860182613dc7565b5060208301518482036020860152613e968282613e2d565b9150508091505092915050565b6000613eaf8383613e66565b905092915050565b6000602082019050919050565b6000613ecf82613d69565b613ed98185613d74565b935083602082028501613eeb85613d85565b8060005b85811015613f275784840389528151613f088582613ea3565b9450613f1383613eb7565b925060208a01995050600181019050613eef565b50829750879550505050505092915050565b60006020820190508181036000830152613f538184613ec4565b905092915050565b600080fd5b600080fd5b613f6e81613db5565b8114613f7957600080fd5b50565b600081359050613f8b81613f65565b92915050565b600060208284031215613fa757613fa6613f5b565b5b6000613fb584828501613f7c565b91505092915050565b600081519050919050565b600082825260208201905092915050565b6000819050602082019050919050565b6000819050919050565b613ffd81613fea565b82525050565b6000819050919050565b61401681614003565b82525050565b60008115159050919050565b6140318161401c565b82525050565b6000610120830160008301516140506000860182613ff4565b5060208301516140636020860182613dc7565b5060408301516140766040860182613dc7565b506060830151614089606086018261400d565b50608083015184820360808601526140a18282613e2d565b91505060a083015184820360a08601526140bb8282613e2d565b91505060c08301516140d060c0860182613ff4565b5060e08301516140e360e0860182614028565b506101008301516140f8610100860182614028565b508091505092915050565b600061410f8383614037565b905092915050565b6000602082019050919050565b600061412f82613fbe565b6141398185613fc9565b93508360208202850161414b85613fda565b8060005b8581101561418757848403895281516141688582614103565b945061417383614117565b925060208a0199505060018101905061414f565b50829750879550505050505092915050565b600060208201905081810360008301526141b38184614124565b905092915050565b6141c481614003565b81146141cf57600080fd5b50565b6000813590506141e1816141bb565b92915050565b600080fd5b600080fd5b600080fd5b60008083601f84011261420c5761420b6141e7565b5b8235905067ffffffffffffffff811115614229576142286141ec565b5b602083019150836001820283011115614245576142446141f1565b5b9250929050565b6000806000806060858703121561426657614265613f5b565b5b6000614274878288016141d2565b945050602061428587828801613f7c565b935050604085013567ffffffffffffffff8111156142a6576142a5613f60565b5b6142b2878288016141f6565b925092505092959194509250565b600081519050919050565b600082825260208201905092915050565b6000819050602082019050919050565b60006142f88383613dc7565b60208301905092915050565b6000602082019050919050565b600061431c826142c0565b61432681856142cb565b9350614331836142dc565b8060005b8381101561436257815161434988826142ec565b975061435483614304565b925050600181019050614335565b5085935050505092915050565b600060208201905081810360008301526143898184614311565b905092915050565b7f4e487b7100000000000000000000000000000000000000000000000000000000600052602160045260246000fd5b600481106143d1576143d0614391565b5b50565b60008190506143e2826143c0565b919050565b60006143f2826143d4565b9050919050565b614402816143e7565b82525050565b6144118161401c565b82525050565b600082825260208201905092915050565b600061443382613dd6565b61443d8185614417565b935061444d818560208601613df2565b61445681613e1c565b840191505092915050565b600060608201905061447660008301866143f9565b6144836020830185614408565b81810360408301526144958184614428565b9050949350505050565b6144a881613fea565b81146144b357600080fd5b50565b6000813590506144c58161449f565b92915050565b6000602082840312156144e1576144e0613f5b565b5b60006144ef848285016144b6565b91505092915050565b600060208201905061450d6000830184614408565b92915050565b6000606082019050818103600083015261452d8186614428565b905061453c6020830185614408565b6145496040830184614408565b949350505050565b61455a81613fea565b82525050565b61456981613db5565b82525050565b61457881614003565b82525050565b600061012082019050614594600083018c614551565b6145a1602083018b614560565b6145ae604083018a614560565b6145bb606083018961456f565b81810360808301526145cd8188614428565b905081810360a08301526145e18187614428565b90506145f060c0830186614551565b6145fd60e0830185614408565b61460b610100830184614408565b9a9950505050505050505050565b600081519050919050565b600082825260208201905092915050565b600061464082614619565b61464a8185614624565b935061465a818560208601613df2565b61466381613e1c565b840191505092915050565b6000608082019050614683600083018761456f565b6146906020830186614560565b81810360408301526146a28185614635565b90506146b16060830184614551565b95945050505050565b60008083601f8401126146d0576146cf6141e7565b5b8235905067ffffffffffffffff8111156146ed576146ec6141ec565b5b602083019150836001820283011115614709576147086141f1565b5b9250929050565b6000806000806000806080878903121561472d5761472c613f5b565b5b600061473b89828a01613f7c565b965050602061474c89828a016141d2565b955050604087013567ffffffffffffffff81111561476d5761476c613f60565b5b61477989828a016146ba565b9450945050606087013567ffffffffffffffff81111561479c5761479b613f60565b5b6147a889828a016146ba565b92509250509295509295509295565b60006020820190506147cc6000830184614551565b92915050565b600080602083850312156147e9576147e8613f5b565b5b600083013567ffffffffffffffff81111561480757614806613f60565b5b614813858286016146ba565b92509250509250929050565b60006020820190506148346000830184614560565b92915050565b7f4e487b7100000000000000000000000000000000000000000000000000000000600052604160045260246000fd5b7f4e487b7100000000000000000000000000000000000000000000000000000000600052603260045260246000fd5b7f4e487b7100000000000000000000000000000000000000000000000000000000600052602260045260246000fd5b600060028204905060018216806148df57607f821691505b6020821081036148f2576148f1614898565b5b50919050565b7f4e487b7100000000000000000000000000000000000000000000000000000000600052601160045260246000fd5b600061493282613fea565b91507fffffffffffffffffffffffffffffffffffffffffffffffffffffffffffffffff8203614964576149636148f8565b5b600182019050919050565b7f417070726f766564206973737565722072657175697265640000000000000000600082015250565b60006149a5601883614417565b91506149b08261496f565b602082019050919050565b600060208201905081810360008301526149d481614998565b9050919050565b7f436974697a656e206e6f74207265676973746572656400000000000000000000600082015250565b6000614a11601683614417565b9150614a1c826149db565b602082019050919050565b60006020820190508181036000830152614a4081614a04565b9050919050565b7f4e6f206d61746368696e672070656e64696e6720726571756573740000000000600082015250565b6000614a7d601b83614417565b9150614a8882614a47565b602082019050919050565b60006020820190508181036000830152614aac81614a70565b9050919050565b60008190508160005260206000209050919050565b60006020601f8301049050919050565b600082821b905092915050565b600060088302614b157fffffffffffffffffffffffffffffffffffffffffffffffffffffffffffffffff82614ad8565b614b1f8683614ad8565b95508019841693508086168417925050509392505050565b6000819050919050565b6000614b5c614b57614b5284613fea565b614b37565b613fea565b9050919050565b6000819050919050565b614b7683614b41565b614b8a614b8282614b63565b848454614ae5565b825550505050565b600090565b614b9f614b92565b614baa818484614b6d565b505050565b5b81811015614bce57614bc3600082614b97565b600181019050614bb0565b5050565b601f821115614c1357614be481614ab3565b614bed84614ac8565b81016020851015614bfc578190505b614c10614c0885614ac8565b830182614baf565b50505b505050565b600082821c905092915050565b6000614c3660001984600802614c18565b1980831691505092915050565b6000614c4f8383614c25565b9150826002028217905092915050565b614c6882614619565b67ffffffffffffffff811115614c8157614c8061483a565b5b614c8b82546148c7565b614c96828285614bd2565b600060209050601f831160018114614cc95760008415614cb7578287015190505b614cc18582614c43565b865550614d29565b601f198416614cd786614ab3565b60005b82811015614cff57848901518255600182019150602085019450602081019050614cda565b86831015614d1c5784890151614d18601f891682614c25565b8355505b6001600288020188555050505b505050505050565b82818337600083830152505050565b6000614d4c8385614624565b9350614d59838584614d31565b614d6283613e1c565b840190509392505050565b6000604082019050614d82600083018661456f565b8181036020830152614d95818486614d40565b9050949350505050565b7f4f6e6c792061646d696e00000000000000000000000000000000000000000000600082015250565b6000614dd5600a83614417565b9150614de082614d9f565b602082019050919050565b60006020820190508181036000830152614e0481614dc8565b9050919050565b7f4e6f742061737369676e65642069737375657200000000000000000000000000600082015250565b6000614e41601383614417565b9150614e4c82614e0b565b602082019050919050565b60006020820190508181036000830152614e7081614e34565b9050919050565b7f5265717565737420616c72656164792070726f63657373656400000000000000600082015250565b6000614ead601983614417565b9150614eb882614e77565b602082019050919050565b60006020820190508181036000830152614edc81614ea0565b9050919050565b7f436974697a656e20726f6c652072657175697265640000000000000000000000600082015250565b6000614f19601583614417565b9150614f2482614ee3565b602082019050919050565b60006020820190508181036000830152614f4881614f0c565b9050919050565b7f497373756572206e6f7420617070726f76656400000000000000000000000000600082015250565b6000614f85601383614417565b9150614f9082614f4f565b602082019050919050565b60006020820190508181036000830152614fb481614f78565b9050919050565b60008190508160005260206000209050919050565b601f82111561501157614fe281614fbb565b614feb84614ac8565b81016020851015614ffa578190505b61500e61500685614ac8565b830182614baf565b50505b505050565b61501f82613dd6565b67ffffffffffffffff8111156150385761503761483a565b5b61504282546148c7565b61504d828285614fd0565b600060209050601f831160018114615080576000841561506e578287015190505b6150788582614c43565b8655506150e0565b601f19841661508e86614fbb565b60005b828110156150b657848901518255600182019150602085019450602081019050615091565b868310156150d357848901516150cf601f891682614c25565b8355505b6001600288020188555050505b505050505050565b60006150f382613fea565b91506150fe83613fea565b9250828201905080821115615116576151156148f8565b5b92915050565b60006151288385614417565b9350615135838584614d31565b61513e83613e1c565b840190509392505050565b600060608201905061515e600083018861456f565b818103602083015261517181868861511c565b9050818103604083015261518681848661511c565b90509695505050505050565b7f4e616d6520726571756972656400000000000000000000000000000000000000600082015250565b60006151c8600d83614417565b91506151d382615192565b602082019050919050565b600060208201905081810360008301526151f7816151bb565b9050919050565b7f416c726561647920726567697374657265640000000000000000000000000000600082015250565b6000615234601283614417565b915061523f826151fe565b602082019050919050565b6000602082019050818103600083015261526381615227565b9050919050565b7f4e6f7420697373756572206170706c6963616e74000000000000000000000000600082015250565b60006152a0601483614417565b91506152ab8261526a565b602082019050919050565b600060208201905081810360008301526152cf81615293565b9050919050565b7f416c726561647920617070726f76656400000000000000000000000000000000600082015250565b600061530c601083614417565b9150615317826152d6565b602082019050919050565b6000602082019050818103600083015261533b816152ff565b9050919050565b7f4e6f74207665726966696572206170706c6963616e7400000000000000000000600082015250565b6000615378601683614417565b915061538382615342565b602082019050919050565b600060208201905081810360008301526153a78161536b565b905091905056fea26469706673582212205f617d6eeeca6fb1f6bb718eea4ad83dac6335824fc32bea6811816a0c39e37264736f6c634300081c0033",
  "linkReferences": {},
  "deployedLinkReferences": {}
}