{
  "_format": "hh-sol-artifact-1",
  "contractName": "TrustRegistry",
  "sourceName": "src/TrustRegistry.sol",
  "abi": [
    {
      "inputs": [],
      "stateMutability": "nonpayable",
      "type": "constructor"
    },
    {
      "anonymous": false,
      "inputs": [
        {
          "indexed": true,
          "internalType": "address",
          "name": "citizen",
          "type": "address"
        }
      ],
      "name": "CitizenRegistered",
      "type": "event"
    },
    {
      "anonymous": false,
      "inputs": [
        {
          "indexed": true,
          "internalType": "address",
          "name": "citizenDid",
          "type": "address"
        },
        {
          "indexed": true,
          "internalType": "address",
          "name": "issuer",
          "type": "address"
        },
        {
          "indexed": false,
          "internalType": "bytes32",
          "name": "documentHash",
          "type": "bytes32"
        },
        {
          "indexed": false,
          "internalType": "bytes",
          "name": "signature",
          "type": "bytes"
        }
      ],
      "name": "DocumentAnchored",
      "type": "event"
    },
    {
      "anonymous": false,
      "inputs": [
        {
          "indexed": true,
          "internalType": "address",
          "name": "applicant",
          "type": "address"
        }
      ],
      "name": "IssuerApplied",
      "type": "event"
    },
    {
      "anonymous": false,
      "inputs": [
        {
          "indexed": true,
          "internalType": "address",
          "name": "issuer",
          "type": "address"
        }
      ],
      "name": "IssuerApproved",
      "type": "event"
    },
    {
      "anonymous": false,
      "inputs": [
        {
          "indexed": true,
          "internalType": "address",
          "name": "applicant",
          "type": "address"
        }
      ],
      "name": "IssuerRejected",
      "type": "event"
    },
    {
      "anonymous": false,
      "inputs": [
        {
          "indexed": true,
          "internalType": "uint256",
          "name": "requestId",
          "type": "uint256"
        }
      ],
      "name": "RequestRejected",
      "type": "event"
    },
    {
      "anonymous": false,
      "inputs": [
        {
          "indexed": true,
          "internalType": "uint256",
          "name": "requestId",
          "type": "uint256"
        },
        {
          "indexed": true,
          "internalType": "address",
          "name": "citizen",
          "type": "address"
        },
        {
          "indexed": true,
          "internalType": "address",
          "name": "issuer",
          "type": "address"
        },
        {
          "indexed": false,
          "internalType": "bytes32",
          "name": "documentHash",
          "type": "bytes32"
        },
        {
          "indexed": false,
          "internalType": "string",
          "name": "ipfsHash",
          "type": "string"
        },
        {
          "indexed": false,
          "internalType": "string",
          "name": "documentType",
          "type": "string"
        }
      ],
      "name": "VerificationRequested",
      "type": "event"
    },
    {
      "anonymous": false,
      "inputs": [
        {
          "indexed": true,
          "internalType": "address",
          "name": "applicant",
          "type": "address"
        }
      ],
      "name": "VerifierApplied",
      "type": "event"
    },
    {
      "anonymous": false,
      "inputs": [
        {
          "indexed": true,
          "internalType": "address",
          "name": "verifier",
          "type": "address"
        }
      ],
      "name": "VerifierApproved",
      "type": "event"
    },
    {
      "anonymous": false,
      "inputs": [
        {
          "indexed": true,
          "internalType": "address",
          "name": "applicant",
          "type": "address"
        }
      ],
      "name": "VerifierRejected",
      "type": "event"
    },
    {
      "inputs": [],
      "name": "admin",
      "outputs": [
        {
          "internalType": "address",
          "name": "",
          "type": "address"
        }
      ],
      "stateMutability": "view",
      "type": "function"
    },
    {
      "inputs": [
        {
          "internalType": "bytes32",
          "name": "documentHash",
          "type": "bytes32"
        },
        {
          "internalType": "address",
          "name": "citizenDid",
          "type": "address"
        },
        {
          "internalType": "string",
          "name": "newIPFSCID",
          "type": "string"
        },
        {
          "internalType": "bytes",
          "name": "signature",
          "type": "bytes"
        }
      ],
      "name": "anchorDocument",
      "outputs": [],
      "stateMutability": "nonpayable",
      "type": "function"
    },
    {
      "inputs": [
        {
          "internalType": "address",
          "name": "",
          "type": "address"
        }
      ],
      "name": "anchoredDocuments",
      "outputs": [
        {
          "internalType": "bytes32",
          "name": "documentHash",
          "type": "bytes32"
        },
        {
          "internalType": "address",
          "name": "issuer",
          "type": "address"
        },
        {
          "internalType": "bytes",
          "name": "signature",
          "type": "bytes"
        },
        {
          "internalType": "uint256",
          "name": "anchoredAt",
          "type": "uint256"
        }
      ],
      "stateMutability": "view",
      "type": "function"
    },
    {
      "inputs": [
        {
          "internalType": "string",
          "name": "_name",
          "type": "string"
        }
      ],
      "name": "applyIssuer",
      "outputs": [],
      "stateMutability": "nonpayable",
      "type": "function"
    },
    {
      "inputs": [
        {
          "internalType": "string",
          "name": "_name",
          "type": "string"
        }
      ],
      "name": "applyVerifier",
      "outputs": [],
      "stateMutability": "nonpayable",
      "type": "function"
    },
    {
      "inputs": [
        {
          "internalType": "address",
          "name": "applicant",
          "type": "address"
        }
      ],
      "name": "approveIssuer",
      "outputs": [],
      "stateMutability": "nonpayable",
      "type": "function"
    },
    {
      "inputs": [
        {
          "internalType": "address",
          "name": "applicant",
          "type": "address"
        }
      ],
      "name": "approveVerifier",
      "outputs": [],
      "stateMutability": "nonpayable",
      "type": "function"
    },
    {
      "inputs": [
        {
          "internalType": "address",
          "name": "citizenDid",
          "type": "address"
        }
      ],
      "name": "getAnchoredDocument",
      "outputs": [
        {
          "internalType": "bytes32",
          "name": "documentHash",
          "type": "bytes32"
        },
        {
          "internalType": "address",
          "name": "issuer",
          "type": "address"
        },
        {
          "internalType": "bytes",
          "name": "signature",
          "type": "bytes"
        },
        {
          "internalType": "uint256",
          "name": "anchoredAt",
          "type": "uint256"
        }
      ],
      "stateMutability": "view",
      "type": "function"
    },
    {
      "inputs": [],
      "name": "getApprovedIssuers",
      "outputs": [
        {
          "internalType": "address[]",
          "name": "",
          "type": "address[]"
        }
      ],
      "stateMutability": "view",
      "type": "function"
    },
    {
      "inputs": [],
      "name": "getApprovedIssuersDetails",
      "outputs": [
        {
          "components": [
            {
              "internalType": "address",
              "name": "addr",
              "type": "address"
            },
            {
              "internalType": "string",
              "name": "name",
              "type": "string"
            }
          ],
          "internalType": "struct TrustRegistry.IssuerInfo[]",
          "name": "",
          "type": "tuple[]"
        }
      ],
      "stateMutability": "view",
      "type": "function"
    },
    {
      "inputs": [
        {
          "internalType": "address",
          "name": "_citizen",
          "type": "address"
        }
      ],
      "name": "getCitizenRequests",
      "outputs": [
        {
          "components": [
            {
              "internalType": "uint256",
              "name": "id",
              "type": "uint256"
            },
            {
              "internalType": "address",
              "name": "citizen",
              "type": "address"
            },
            {
              "internalType": "address",
              "name": "issuer",
              "type": "address"
            },
            {
              "internalType": "bytes32",
              "name": "documentHash",
              "type": "bytes32"
            },
            {
              "internalType": "string",
              "name": "ipfsHash",
              "type": "string"
            },
            {
              "internalType": "string",
              "name": "documentType",
              "type": "string"
            },
            {
              "internalType": "uint256",
              "name": "timestamp",
              "type": "uint256"
            },
            {
              "internalType": "bool",
              "name": "isAnchored",
              "type": "bool"
            },
            {
              "internalType": "bool",
              "name": "isRejected",
              "type": "bool"
            }
          ],
          "internalType": "struct TrustRegistry.VerificationRequest[]",
          "name": "",
          "type": "tuple[]"
        }
      ],
      "stateMutability": "view",
      "type": "function"
    },
    {
      "inputs": [],
      "name": "getIssuerApplicationDetails",
      "outputs": [
        {
          "components": [
            {
              "internalType": "address",
              "name": "addr",
              "type": "address"
            },
            {
              "internalType": "string",
              "name": "name",
              "type": "string"
            }
          ],
          "internalType": "struct TrustRegistry.IssuerInfo[]",
          "name": "",
          "type": "tuple[]"
        }
      ],
      "stateMutability": "view",
      "type": "function"
    },
    {
      "inputs": [],
      "name": "getIssuerApplications",
      "outputs": [
        {
          "internalType": "address[]",
          "name": "",
          "type": "address[]"
        }
      ],
      "stateMutability": "view",
      "type": "function"
    },
    {
      "inputs": [
        {
          "internalType": "address",
          "name": "issuer",
          "type": "address"
        }
      ],
      "name": "getIssuerPendingRequests",
      "outputs": [
        {
          "components": [
            {
              "internalType": "uint256",
              "name": "id",
              "type": "uint256"
            },
            {
              "internalType": "address",
              "name": "citizen",
              "type": "address"
            },
            {
              "internalType": "address",
              "name": "issuer",
              "type": "address"
            },
            {
              "internalType": "bytes32",
              "name": "documentHash",
              "type": "bytes32"
            },
            {
              "internalType": "string",
              "name": "ipfsHash",
              "type": "string"
            },
            {
              "internalType": "string",
              "name": "documentType",
              "type": "string"
            },
            {
              "internalType": "uint256",
              "name": "timestamp",
              "type": "uint256"
            },
            {
              "internalType": "bool",
              "name": "isAnchored",
              "type": "bool"
            },
            {
              "internalType": "bool",
              "name": "isRejected",
              "type": "bool"
            }
          ],
          "internalType": "struct TrustRegistry.VerificationRequest[]",
          "name": "",
          "type": "tuple[]"
        }
      ],
      "stateMutability": "view",
      "type": "function"
    },
    {
      "inputs": [
        {
          "internalType": "address",
          "name": "user",
          "type": "address"
        }
      ],
      "name": "getUserRole",
      "outputs": [
        {
          "internalType": "enum TrustRegistry.Role",
          "name": "role",
          "type": "uint8"
        },
        {
          "internalType": "bool",
          "name": "isApproved",
          "type": "bool"
        },
        {
          "internalType": "string",
          "name": "departmentName",
          "type": "string"
        }
      ],
      "stateMutability": "view",
      "type": "function"
    },
    {
      "inputs": [],
      "name": "getVerifierApplicationDetails",
      "outputs": [
        {
          "components": [
            {
              "internalType": "address",
              "name": "addr",
              "type": "address"
            },
            {
              "internalType": "string",
              "name": "name",
              "type": "string"
            }
          ],
          "internalType": "struct TrustRegistry.IssuerInfo[]",
          "name": "",
          "type": "tuple[]"
        }
      ],
      "stateMutability": "view",
      "type": "function"
    },
    {
      "inputs": [],
      "name": "getVerifierApplications",
      "outputs": [
        {
          "internalType": "address[]",
          "name": "",
          "type": "address[]"
        }
      ],
      "stateMutability": "view",
      "type": "function"
    },
    {
      "inputs": [
        {
          "internalType": "address",
          "name": "",
          "type": "address"
        }
      ],
      "name": "isAuthorizedIssuer",
      "outputs": [
        {
          "internalType": "bool",
          "name": "",
          "type": "bool"
        }
      ],
      "stateMutability": "view",
      "type": "function"
    },
    {
      "inputs": [
        {
          "internalType": "address",
          "name": "",
          "type": "address"
        }
      ],
      "name": "isAuthorizedVerifier",
      "outputs": [
        {
          "internalType": "bool",
          "name": "",
          "type": "bool"
        }
      ],
      "stateMutability": "view",
      "type": "function"
    },
    {
      "inputs": [
        {
          "internalType": "address",
          "name": "",
          "type": "address"
        }
      ],
      "name": "issuers",
      "outputs": [
        {
          "internalType": "string",
          "name": "name",
          "type": "string"
        },
        {
          "internalType": "bool",
          "name": "isApproved",
          "type": "bool"
        },
        {
          "internalType": "bool",
          "name": "exists",
          "type": "bool"
        },
        {
          "internalType": "bool",
          "name": "isRejected",
          "type": "bool"
        }
      ],
      "stateMutability": "view",
      "type": "function"
    },
    {
      "inputs": [],
      "name": "nextRequestId",
      "outputs": [
        {
          "internalType": "uint256",
          "name": "",
          "type": "uint256"
        }
      ],
      "stateMutability": "view",
      "type": "function"
    },
    {
      "inputs": [],
      "name": "registerCitizen",
      "outputs": [],
      "stateMutability": "nonpayable",
      "type": "function"
    },
    {
      "inputs": [
        {
          "internalType": "address",
          "name": "applicant",
          "type": "address"
        }
      ],
      "name": "rejectIssuer",
      "outputs": [],
      "stateMutability": "nonpayable",
      "type": "function"
    },
    {
      "inputs": [
        {
          "internalType": "uint256",
          "name": "requestId",
          "type": "uint256"
        }
      ],
      "name": "rejectRequest",
      "outputs": [],
      "stateMutability": "nonpayable",
      "type": "function"
    },
    {
      "inputs": [
        {
          "internalType": "address",
          "name": "applicant",
          "type": "address"
        }
      ],
      "name": "rejectVerifier",
      "outputs": [],
      "stateMutability": "nonpayable",
      "type": "function"
    },
    {
      "inputs": [
        {
          "internalType": "address",
          "name": "issuer",
          "type": "address"
        },
        {
          "internalType": "bytes32",
          "name": "documentHash",
          "type": "bytes32"
        },
        {
          "internalType": "string",
          "name": "ipfsHash",
          "type": "string"
        },
        {
          "internalType": "string",
          "name": "_documentType",
          "type": "string"
        }
      ],
      "name": "requestVerification",
      "outputs": [
        {
          "internalType": "uint256",
          "name": "requestId",
          "type": "uint256"
        }
      ],
      "stateMutability": "nonpayable",
      "type": "function"
    },
    {
      "inputs": [
        {
          "internalType": "address",
          "name": "",
          "type": "address"
        }
      ],
      "name": "users",
      "outputs": [
        {
          "internalType": "enum TrustRegistry.Role",
          "name": "role",
          "type": "uint8"
        },
        {
          "internalType": "bool",
          "name": "isApproved",
          "type": "bool"
        },
        {
          "internalType": "string",
          "name": "departmentName",
          "type": "string"
        }
      ],
      "stateMutability": "view",
      "type": "function"
    },
    {
      "inputs": [
        {
          "internalType": "uint256",
          "name": "",
          "type": "uint256"
        }
      ],
      "name": "verificationRequests",
      "outputs": [
        {
          "internalType": "uint256",
          "name": "id",
          "type": "uint256"
        },
        {
          "internalType": "address",
          "name": "citizen",
          "type": "address"
        },
        {
          "internalType": "address",
          "name": "issuer",
          "type": "address"
        },
        {
          "internalType": "bytes32",
          "name": "documentHash",
          "type": "bytes32"
        },
        {
          "internalType": "string",
          "name": "ipfsHash",
          "type": "string"
        },
        {
          "internalType": "string",
          "name": "documentType",
          "type": "string"
        },
        {
          "internalType": "uint256",
          "name": "timestamp",
          "type": "uint256"
        },
        {
          "internalType": "bool",
          "name": "isAnchored",
          "type": "bool"
        },
        {
          "internalType": "bool",
          "name": "isRejected",
          "type": "bool"
        }
      ],
      "stateMutability": "view",
      "type": "function"
    },
    {
      "inputs": [
        {
          "internalType": "address",
          "name": "",
          "type": "address"
        }
      ],
      "name": "verifiers",
      "outputs": [
        {
          "internalType": "string",
          "name": "name",
          "type": "string"
        },
        {
          "internalType": "bool",
          "name": "isApproved",
          "type": "bool"
        },
        {
          "internalType": "bool",
          "name": "exists",
          "type": "bool"
        },
        {
          "internalType": "bool",
          "name": "isRejected",
          "type": "bool"
        }
      ],
      "stateMutability": "view",
      "type": "function"
    }
  ],
  "bytecode": "0x60a060405234801561001057600080fd5b50336080526080516136f26100686000396000818161044a015281816108c70152818161156201528181611a4201528181611d7b015281816120f801528181612414015281816125ca01526129eb01526136f26000f3fe608060405234801561001057600080fd5b50600436106101cf5760003560e01c80636dd80dc011610104578063a87430ba116100a2578063dcc5c93711610071578063dcc5c93714610417578063e2f7f9641461042a578063e7a82d7414610432578063f851a4401461044557600080fd5b8063a87430ba146103d6578063aae3536f146103e9578063c88efe65146103f1578063cfc197b01461040457600080fd5b80637b56d734116100de5780637b56d734146103a05780637beaaf56146103a857806382deb86e146103bb578063907de2cc146103ce57600080fd5b80636dd80dc0146103725780636f6177bf146103855780637a2e0da51461039857600080fd5b80634089d49f116101715780635965e4ff1161014b5780635965e4ff146103205780636a84a985146103335780636c8244871461033c5780636cacbf301461034f57600080fd5b80634089d49f146102b457806352d46fcc146102dc5780635323c2bf146102ff57600080fd5b806327820851116101ad57806327820851146102275780632d7788db1461024957806331ba19661461025e57806338a7543e1461029157600080fd5b806307fc9b34146101d457806312648e34146101f25780631a2269a614610212575b600080fd5b6101dc610484565b6040516101e99190612e8d565b60405180910390f35b610205610200366004612f2e565b610601565b6040516101e99190612f50565b61021a6108ba565b6040516101e99190613051565b61023a610235366004612f2e565b61096d565b6040516101e9939291906130b3565b61025c6102573660046130fb565b610a85565b005b61028161026c366004612f2e565b60036020526000908152604090205460ff1681565b60405190151581526020016101e9565b6102a461029f366004612f2e565b610bd4565b6040516101e99493929190613114565b6102c76102c23660046130fb565b610c8e565b6040516101e999989796959493929190613145565b6102ef6102ea366004612f2e565b610dfb565b6040516101e994939291906131b6565b61031261030d36600461323a565b610eb6565b6040519081526020016101e9565b61020561032e366004612f2e565b61127b565b61031260065481565b6102a461034a366004612f2e565b61153c565b61028161035d366004612f2e565b60046020526000908152604090205460ff1681565b61025c610380366004612f2e565b611557565b61025c6103933660046132c9565b61170d565b61021a6119d5565b61021a611a35565b61025c6103b636600461330e565b611add565b61025c6103c9366004612f2e565b611d70565b61025c611f3e565b61023a6103e4366004612f2e565b612039565b6101dc6120eb565b61025c6103ff366004612f2e565b612409565b61025c610412366004612f2e565b6125bf565b61025c61042536600461330e565b61274e565b6101dc6129de565b6102ef610440366004612f2e565b612cf5565b61046c7f000000000000000000000000000000000000000000000000000000000000000081565b6040516001600160a01b0390911681526020016101e9565b600a5460609060009067ffffffffffffffff8111156104a5576104a5613350565b6040519080825280602002602001820160405280156104eb57816020015b6040805180820190915260008152606060208201528152602001906001900390816104c35790505b50905060005b600a548110156105fb576000600a828154811061051057610510613366565b60009182526020808320909101546040805180820182526001600160a01b03909216808352808552848452932060010180549394509092918301916105549061337c565b80601f01602080910402602001604051908101604052809291908181526020018280546105809061337c565b80156105cd5780601f106105a2576101008083540402835291602001916105cd565b820191906000526020600020905b8154815290600101906020018083116105b057829003601f168201915b50505050508152508383815181106105e7576105e7613366565b6020908102919091010152506001016104f1565b50919050565b60606000805b60065481101561064b576000818152600560205260409020600101546001600160a01b03808616911603610643578161063f816133c6565b9250505b600101610607565b5060008167ffffffffffffffff81111561066757610667613350565b6040519080825280602002602001820160405280156106a057816020015b61068d612dfc565b8152602001906001900390816106855790505b5090506000805b6006548110156108b0576000818152600560205260409020600101546001600160a01b038088169116036108a8576000818152600560209081526040918290208251610120810184528154815260018201546001600160a01b03908116938201939093526002820154909216928201929092526003820154606082015260048201805491929160808401919061073c9061337c565b80601f01602080910402602001604051908101604052809291908181526020018280546107689061337c565b80156107b55780601f1061078a576101008083540402835291602001916107b5565b820191906000526020600020905b81548152906001019060200180831161079857829003601f168201915b505050505081526020016005820180546107ce9061337c565b80601f01602080910402602001604051908101604052809291908181526020018280546107fa9061337c565b80156108475780601f1061081c57610100808354040283529160200191610847565b820191906000526020600020905b81548152906001019060200180831161082a57829003601f168201915b50505091835250506006820154602082015260079091015460ff80821615156040840152610100909104161515606090910152835184908490811061088e5761088e613366565b602002602001018190525081806108a4906133c6565b9250505b6001016106a7565b5090949350505050565b6060336001600160a01b037f0000000000000000000000000000000000000000000000000000000000000000161461090d5760405162461bcd60e51b8152600401610904906133df565b60405180910390fd5b600980548060200260200160405190810160405280929190818152602001828054801561096357602002820191906000526020600020905b81546001600160a01b03168152600190910190602001808311610945575b5050505050905090565b6001600160a01b038116600090815260208190526040808220815160608181019093528154849392849291829060ff1660038111156109ae576109ae61309d565b60038111156109bf576109bf61309d565b81528154610100900460ff16151560208201526001820180546040909201916109e79061337c565b80601f0160208091040260200160405190810160405280929190818152602001828054610a139061337c565b8015610a605780601f10610a3557610100808354040283529160200191610a60565b820191906000526020600020905b815481529060010190602001808311610a4357829003601f168201915b5050509190925250508151602083015160409093015190989297509550909350505050565b3360009081526003602052604090205460ff16610adf5760405162461bcd60e51b8152602060048201526018602482015277105c1c1c9bdd9959081a5cdcdd595c881c995c5d5a5c995960421b6044820152606401610904565b600081815260056020526040902060028101546001600160a01b03163314610b3f5760405162461bcd60e51b81526020600482015260136024820152722737ba1030b9b9b4b3b732b21034b9b9bab2b960691b6044820152606401610904565b600781015460ff1615610b945760405162461bcd60e51b815260206004820152601960248201527f5265717565737420616c72656164792070726f636573736564000000000000006044820152606401610904565b60078101805461ffff191661010117905560405182907f1fdac08e93f72ff55b24ebdf4152b7f56b98982fe9249639c1010cc52aebccd690600090a25050565b600160205260009081526040902080548190610bef9061337c565b80601f0160208091040260200160405190810160405280929190818152602001828054610c1b9061337c565b8015610c685780601f10610c3d57610100808354040283529160200191610c68565b820191906000526020600020905b815481529060010190602001808311610c4b57829003601f168201915b5050506001909301549192505060ff808216916101008104821691620100009091041684565b6005602052600090815260409020805460018201546002830154600384015460048501805494956001600160a01b039485169593909416939192610cd19061337c565b80601f0160208091040260200160405190810160405280929190818152602001828054610cfd9061337c565b8015610d4a5780601f10610d1f57610100808354040283529160200191610d4a565b820191906000526020600020905b815481529060010190602001808311610d2d57829003601f168201915b505050505090806005018054610d5f9061337c565b80601f0160208091040260200160405190810160405280929190818152602001828054610d8b9061337c565b8015610dd85780601f10610dad57610100808354040283529160200191610dd8565b820191906000526020600020905b815481529060010190602001808311610dbb57829003601f168201915b50505050600683015460079093015491929160ff80821692506101009091041689565b60076020526000908152604090208054600182015460028301805492936001600160a01b0390921692610e2d9061337c565b80601f0160208091040260200160405190810160405280929190818152602001828054610e599061337c565b8015610ea65780601f10610e7b57610100808354040283529160200191610ea6565b820191906000526020600020905b815481529060010190602001808311610e8957829003601f168201915b5050505050908060030154905084565b33600090815260208190526040808220815160608101909252805483929190829060ff166003811115610eeb57610eeb61309d565b6003811115610efc57610efc61309d565b81528154610100900460ff1615156020820152600182018054604090920191610f249061337c565b80601f0160208091040260200160405190810160405280929190818152602001828054610f509061337c565b8015610f9d5780601f10610f7257610100808354040283529160200191610f9d565b820191906000526020600020905b815481529060010190602001808311610f8057829003601f168201915b505050505081525050905060016003811115610fbb57610fbb61309d565b81516003811115610fce57610fce61309d565b148015610fdc575080602001515b6110205760405162461bcd60e51b815260206004820152601560248201527410da5d1a5e995b881c9bdb19481c995c5d5a5c9959605a1b6044820152606401610904565b6001600160a01b03881660009081526003602052604090205460ff1661107e5760405162461bcd60e51b8152602060048201526013602482015272125cdcdd595c881b9bdd08185c1c1c9bdd9959606a1b6044820152606401610904565b6006549150604051806101200160405280838152602001336001600160a01b03168152602001896001600160a01b0316815260200188815260200187878080601f016020809104026020016040519081016040528093929190818152602001838380828437600092019190915250505090825250604080516020601f880181900481028201810190925286815291810191908790879081908401838280828437600092018290525093855250504260208085019190915260408085018490526060948501849052878452600582529283902085518155908501516001820180546001600160a01b03199081166001600160a01b03938416179091559386015160028301805490951691161790925550908201516003820155608082015160048201906111aa9082613452565b5060a082015160058201906111bf9082613452565b5060c082015160068281019190915560e0830151600790920180546101009485015161ffff1990911693151561ff0019169390931792151590930291909117909155805460019190600090611215908490613511565b92505081905550876001600160a01b0316336001600160a01b0316837fae718418a8eefe9ceab90293e8a24cafee62abed779de7b6840a15a4679bd4278a8a8a8a8a604051611268959493929190613553565b60405180910390a4509695505050505050565b60606000805b6006548110156112d957600081815260056020526040902060028101546001600160a01b0386811691161480156112bd5750600781015460ff16155b156112d057826112cc816133c6565b9350505b50600101611281565b5060008167ffffffffffffffff8111156112f5576112f5613350565b60405190808252806020026020018201604052801561132e57816020015b61131b612dfc565b8152602001906001900390816113135790505b5090506000805b6006548110156108b057600081815260056020526040902060028101546001600160a01b0388811691161480156113715750600781015460ff16155b156115335760408051610120810182528254815260018301546001600160a01b0390811660208301526002840154169181019190915260038201546060820152600482018054839160808401916113c79061337c565b80601f01602080910402602001604051908101604052809291908181526020018280546113f39061337c565b80156114405780601f1061141557610100808354040283529160200191611440565b820191906000526020600020905b81548152906001019060200180831161142357829003601f168201915b505050505081526020016005820180546114599061337c565b80601f01602080910402602001604051908101604052809291908181526020018280546114859061337c565b80156114d25780601f106114a7576101008083540402835291602001916114d2565b820191906000526020600020905b8154815290600101906020018083116114b557829003601f168201915b50505091835250506006820154602082015260079091015460ff80821615156040840152610100909104161515606090910152845185908590811061151957611519613366565b6020026020010181905250828061152f906133c6565b9350505b50600101611335565b600260205260009081526040902080548190610bef9061337c565b336001600160a01b037f0000000000000000000000000000000000000000000000000000000000000000161461159f5760405162461bcd60e51b8152600401610904906133df565b6001600160a01b038116600090815260026020526040902060010154610100900460ff166116085760405162461bcd60e51b8152602060048201526016602482015275139bdd081d995c9a599a595c88185c1c1b1a58d85b9d60521b6044820152606401610904565b6001600160a01b03811660009081526002602052604090206001015460ff16156116445760405162461bcd60e51b81526004016109049061358c565b6001600160a01b03811660009081526002602052604090206001015462010000900460ff16156116a95760405162461bcd60e51b815260206004820152601060248201526f105b1c9958591e481c995a9958dd195960821b6044820152606401610904565b6001600160a01b0381166000818152600260209081526040808320600101805462ff000019166201000017905590829052808220805460ff19169055517fb8ac55accd02fce8d67495912a7d93afec469dfab28ac363bfbe72b1bd3d43659190a250565b3360009081526003602052604090205460ff166117675760405162461bcd60e51b8152602060048201526018602482015277105c1c1c9bdd9959081a5cdcdd595c881c995c5d5a5c995960421b6044820152606401610904565b60016001600160a01b03861660009081526020819052604090205460ff1660038111156117965761179661309d565b146117dc5760405162461bcd60e51b815260206004820152601660248201527510da5d1a5e995b881b9bdd081c9959da5cdd195c995960521b6044820152606401610904565b6000805b60065481101561187a576000818152600560205260409020600781015460ff16158015611819575060028101546001600160a01b031633145b8015611834575060018101546001600160a01b038981169116145b80156118435750888160030154145b156118715760078101805460ff19166001179055600481016118668789836135b6565b50600192505061187a565b506001016117e0565b50806118c85760405162461bcd60e51b815260206004820152601b60248201527f4e6f206d61746368696e672070656e64696e67207265717565737400000000006044820152606401610904565b6040518060800160405280888152602001336001600160a01b0316815260200184848080601f0160208091040260200160405190810160405280939291908181526020018383808284376000920182905250938552505042602093840152506001600160a01b0389811682526007835260409182902084518155928401516001840180546001600160a01b03191691909216179055820151600282019061196f9082613452565b5060608201518160030155905050336001600160a01b0316866001600160a01b03167f257e34c89d33fdcdf3a925d80e4ca5eba21aeb381fbb47f4cd86c80d42fa8f168986866040516119c493929190613676565b60405180910390a350505050505050565b6060600a805480602002602001604051908101604052809291908181526020018280548015610963576020028201919060005260206000209081546001600160a01b03168152600190910190602001808311610945575050505050905090565b6060336001600160a01b037f00000000000000000000000000000000000000000000000000000000000000001614611a7f5760405162461bcd60e51b8152600401610904906133df565b6008805480602002602001604051908101604052809291908181526020018280548015610963576020028201919060005260206000209081546001600160a01b03168152600190910190602001808311610945575050505050905090565b80611b1a5760405162461bcd60e51b815260206004820152600d60248201526c13985b59481c995c5d5a5c9959609a1b6044820152606401610904565b3360009081526020819052604081205460ff166003811115611b3e57611b3e61309d565b14611b5b5760405162461bcd60e51b815260040161090490613690565b604051806080016040528083838080601f0160208091040260200160405190810160405280939291908181526020018383808284376000920182905250938552505050602080830182905260016040808501919091526060909301829052338252600290522081518190611bcf9082613452565b506020820151600190910180546040808501516060958601511515620100000262ff0000199115156101000261ff00199615159690961661ffff1990941693909317949094179390931617905580519182019052806003815260200160001515815260200183838080601f01602080910402602001604051908101604052809392919081815260200183838082843760009201829052509390945250503381526020819052604090208251815491925090829060ff19166001836003811115611c9a57611c9a61309d565b0217905550602082015181549015156101000261ff001990911617815560408201516001820190611ccb9082613452565b5050336000908152600c602052604090205460ff169050611d41576009805460018181019092557f6e1540171b6c0c960b71a7020d9f60077f6af931a8bbf590da0223dacf75c7af0180546001600160a01b031916339081179091556000908152600c60205260409020805460ff191690911790555b60405133907f75fb76cb43c0e3cc3d8124eea38b30de867708e958ff60f06f1b5374fb0a4b5e90600090a25050565b336001600160a01b037f00000000000000000000000000000000000000000000000000000000000000001614611db85760405162461bcd60e51b8152600401610904906133df565b6001600160a01b03811660009081526020819052604090206002815460ff166003811115611de857611de861309d565b14611e2c5760405162461bcd60e51b8152602060048201526014602482015273139bdd081a5cdcdd595c88185c1c1b1a58d85b9d60621b6044820152606401610904565b8054610100900460ff1615611e535760405162461bcd60e51b81526004016109049061358c565b805461ff00191661010090811782556001600160a01b038316600090815260016020819052604090912001540460ff1615611eb1576001600160a01b03821660009081526001602081905260409091208101805460ff191690911790555b6001600160a01b038216600081815260036020526040808220805460ff19166001908117909155600a8054918201815583527fc65a7bb8d6351c1cf70c95a316cc6a92839c986682d98bc35f958f4883f9d2a80180546001600160a01b03191684179055517f98733e3bf5d792e3092c41611bfc6e1257e92ee3606413ec61366471eabd9ad99190a25050565b3360009081526020819052604081205460ff166003811115611f6257611f6261309d565b14611f7f5760405162461bcd60e51b815260040161090490613690565b6040805160608101909152806001815260016020808301829052604080518083018252600080825294820152338452908390529091208251815491929091839160ff1990911690836003811115611fd857611fd861309d565b0217905550602082015181549015156101000261ff0019909116178155604082015160018201906120099082613452565b50506040513391507fb5598409719558ebd54a454803d5d44a0b2ae7d77be5ea208f6a3b9698a2cb5890600090a2565b6000602081905290815260409020805460018201805460ff80841694610100909404169291906120689061337c565b80601f01602080910402602001604051908101604052809291908181526020018280546120949061337c565b80156120e15780601f106120b6576101008083540402835291602001916120e1565b820191906000526020600020905b8154815290600101906020018083116120c457829003601f168201915b5050505050905083565b6060336001600160a01b037f000000000000000000000000000000000000000000000000000000000000000016146121355760405162461bcd60e51b8152600401610904906133df565b6000805b6009548110156121fe5760006009828154811061215857612158613366565b60009182526020808320909101546001600160a01b0316808352600290915260409091206001015490915060ff6101009091041680156121b457506001600160a01b03811660009081526002602052604090206001015460ff16155b80156121e257506001600160a01b03811660009081526002602052604090206001015462010000900460ff16155b156121f557826121f1816133c6565b9350505b50600101612139565b5060008167ffffffffffffffff81111561221a5761221a613350565b60405190808252806020026020018201604052801561226057816020015b6040805180820190915260008152606060208201528152602001906001900390816122385790505b5090506000805b6009548110156124005760006009828154811061228657612286613366565b60009182526020808320909101546001600160a01b0316808352600290915260409091206001015490915060ff6101009091041680156122e257506001600160a01b03811660009081526002602052604090206001015460ff16155b801561231057506001600160a01b03811660009081526002602052604090206001015462010000900460ff16155b156123f7576040805180820182526001600160a01b0383168082526000908152600260209081529290208054919283019161234a9061337c565b80601f01602080910402602001604051908101604052809291908181526020018280546123769061337c565b80156123c35780601f10612398576101008083540402835291602001916123c3565b820191906000526020600020905b8154815290600101906020018083116123a657829003601f168201915b50505050508152508484815181106123dd576123dd613366565b602002602001018190525082806123f3906133c6565b9350505b50600101612267565b50909250505090565b336001600160a01b037f000000000000000000000000000000000000000000000000000000000000000016146124515760405162461bcd60e51b8152600401610904906133df565b6001600160a01b03811660009081526001602081905260409091200154610100900460ff166124b95760405162461bcd60e51b8152602060048201526014602482015273139bdd081a5cdcdd595c88185c1c1b1a58d85b9d60621b6044820152606401610904565b6001600160a01b0381166000908152600160208190526040909120015460ff16156124f65760405162461bcd60e51b81526004016109049061358c565b6001600160a01b0381166000908152600160208190526040909120015462010000900460ff161561255c5760405162461bcd60e51b815260206004820152601060248201526f105b1c9958591e481c995a9958dd195960821b6044820152606401610904565b6001600160a01b0381166000818152600160208181526040808420909201805462ff0000191662010000179055829052808220805460ff19169055517fd045b8ec708f2d1dc01e4ce81968043f2f0192786587af43b22abf70448c6ed49190a250565b336001600160a01b037f000000000000000000000000000000000000000000000000000000000000000016146126075760405162461bcd60e51b8152600401610904906133df565b6001600160a01b03811660009081526020819052604090206003815460ff1660038111156126375761263761309d565b1461267d5760405162461bcd60e51b8152602060048201526016602482015275139bdd081d995c9a599a595c88185c1c1b1a58d85b9d60521b6044820152606401610904565b8054610100900460ff16156126a45760405162461bcd60e51b81526004016109049061358c565b805461ff00191661010090811782556001600160a01b0383166000908152600260205260409020600101540460ff1615612701576001600160a01b03821660009081526002602052604090206001908101805460ff191690911790555b6001600160a01b038216600081815260046020526040808220805460ff19166001179055517f9380731c3187619dd665ab116dd0419cf0c2f741528f3d6fae906ea1c9fbc15c9190a25050565b8061278b5760405162461bcd60e51b815260206004820152600d60248201526c13985b59481c995c5d5a5c9959609a1b6044820152606401610904565b3360009081526020819052604081205460ff1660038111156127af576127af61309d565b146127cc5760405162461bcd60e51b815260040161090490613690565b604051806080016040528083838080601f016020809104026020016040519081016040528093929190818152602001838380828437600092018290525093855250505060208083018290526001604080850182905260609094018390523383529052208151819061283d9082613452565b506020820151600190910180546040808501516060958601511515620100000262ff0000199115156101000261ff00199615159690961661ffff1990941693909317949094179390931617905580519182019052806002815260200160001515815260200183838080601f01602080910402602001604051908101604052809392919081815260200183838082843760009201829052509390945250503381526020819052604090208251815491925090829060ff191660018360038111156129085761290861309d565b0217905550602082015181549015156101000261ff0019909116178155604082015160018201906129399082613452565b5050336000908152600b602052604090205460ff1690506129af576008805460018181019092557ff3f7a9fe364faab93b216da50a3214154f22a0a2b415b23a84c8169e8b636ee30180546001600160a01b031916339081179091556000908152600b60205260409020805460ff191690911790555b60405133907f4af0d9e22ae30e4db6547df2548d6b2d8ddbaa801de04d02d970458cb06b1e4890600090a25050565b6060336001600160a01b037f00000000000000000000000000000000000000000000000000000000000000001614612a285760405162461bcd60e51b8152600401610904906133df565b6000805b600854811015612af257600060088281548110612a4b57612a4b613366565b60009182526020808320909101546001600160a01b03168083526001918290526040909220015490915060ff610100909104168015612aa757506001600160a01b0381166000908152600160208190526040909120015460ff16155b8015612ad657506001600160a01b0381166000908152600160208190526040909120015462010000900460ff16155b15612ae95782612ae5816133c6565b9350505b50600101612a2c565b5060008167ffffffffffffffff811115612b0e57612b0e613350565b604051908082528060200260200182016040528015612b5457816020015b604080518082019091526000815260606020820152815260200190600190039081612b2c5790505b5090506000805b60085481101561240057600060088281548110612b7a57612b7a613366565b60009182526020808320909101546001600160a01b03168083526001918290526040909220015490915060ff610100909104168015612bd657506001600160a01b0381166000908152600160208190526040909120015460ff16155b8015612c0557506001600160a01b0381166000908152600160208190526040909120015462010000900460ff16155b15612cec576040805180820182526001600160a01b03831680825260009081526001602090815292902080549192830191612c3f9061337c565b80601f0160208091040260200160405190810160405280929190818152602001828054612c6b9061337c565b8015612cb85780601f10612c8d57610100808354040283529160200191612cb8565b820191906000526020600020905b815481529060010190602001808311612c9b57829003601f168201915b5050505050815250848481518110612cd257612cd2613366565b60200260200101819052508280612ce8906133c6565b9350505b50600101612b5b565b6001600160a01b038082166000908152600760209081526040808320815160808101835281548152600182015490951692850192909252600282018054939485946060948694859491929084019190612d4d9061337c565b80601f0160208091040260200160405190810160405280929190818152602001828054612d799061337c565b8015612dc65780601f10612d9b57610100808354040283529160200191612dc6565b820191906000526020600020905b815481529060010190602001808311612da957829003601f168201915b50505091835250506003919091015460209182015281519082015160408301516060909301519199909850919650945092505050565b604080516101208101825260008082526020820181905291810182905260608082018390526080820181905260a082015260c0810182905260e0810182905261010081019190915290565b6000815180845260005b81811015612e6d57602081850181015186830182015201612e51565b506000602082860101526020601f19601f83011685010191505092915050565b6000602082016020835280845180835260408501915060408160051b86010192506020860160005b82811015612f0657868503603f19018452815180516001600160a01b03168652602090810151604091870182905290612ef090870182612e47565b9550506020938401939190910190600101612eb5565b50929695505050505050565b80356001600160a01b0381168114612f2957600080fd5b919050565b600060208284031215612f4057600080fd5b612f4982612f12565b9392505050565b6000602082016020835280845180835260408501915060408160051b86010192506020860160005b82811015612f0657603f198786030184528151805186526020810151612fa960208801826001600160a01b03169052565b506040810151612fc460408801826001600160a01b03169052565b506060810151606087015260808101516101206080880152612fea610120880182612e47565b905060a082015187820360a08901526130038282612e47565b91505060c082015160c088015260e082015161302360e089018215159052565b50610100820151915061303b61010088018315159052565b9550506020938401939190910190600101612f78565b602080825282518282018190526000918401906040840190835b818110156130925783516001600160a01b031683526020938401939092019160010161306b565b509095945050505050565b634e487b7160e01b600052602160045260246000fd5b6000600485106130d357634e487b7160e01b600052602160045260246000fd5b8482528315156020830152606060408301526130f26060830184612e47565b95945050505050565b60006020828403121561310d57600080fd5b5035919050565b6080815260006131276080830187612e47565b94151560208301525091151560408301521515606090910152919050565b8981526001600160a01b03898116602083015288166040820152606081018790526101206080820181905260009061317f90830188612e47565b82810360a08401526131918188612e47565b60c0840196909652505091151560e08301521515610100909101529695505050505050565b8481526001600160a01b03841660208201526080604082018190526000906131e090830185612e47565b905082606083015295945050505050565b60008083601f84011261320357600080fd5b50813567ffffffffffffffff81111561321b57600080fd5b60208301915083602082850101111561323357600080fd5b9250929050565b6000806000806000806080878903121561325357600080fd5b61325c87612f12565b955060208701359450604087013567ffffffffffffffff81111561327f57600080fd5b61328b89828a016131f1565b909550935050606087013567ffffffffffffffff8111156132ab57600080fd5b6132b789828a016131f1565b979a9699509497509295939492505050565b600080600080600080608087890312156132e257600080fd5b863595506132f260208801612f12565b9450604087013567ffffffffffffffff81111561327f57600080fd5b6000806020838503121561332157600080fd5b823567ffffffffffffffff81111561333857600080fd5b613344858286016131f1565b90969095509350505050565b634e487b7160e01b600052604160045260246000fd5b634e487b7160e01b600052603260045260246000fd5b600181811c9082168061339057607f821691505b6020821081036105fb57634e487b7160e01b600052602260045260246000fd5b634e487b7160e01b600052601160045260246000fd5b6000600182016133d8576133d86133b0565b5060010190565b6020808252600a908201526927b7363c9030b236b4b760b11b604082015260600190565b601f82111561344d57806000526020600020601f840160051c8101602085101561342a5750805b601f840160051c820191505b8181101561344a5760008155600101613436565b50505b505050565b815167ffffffffffffffff81111561346c5761346c613350565b6134808161347a845461337c565b84613403565b6020601f8211600181146134b4576000831561349c5750848201515b600019600385901b1c1916600184901b17845561344a565b600084815260208120601f198516915b828110156134e457878501518255602094850194600190920191016134c4565b50848210156135025786840151600019600387901b60f8161c191681555b50505050600190811b01905550565b80820180821115613524576135246133b0565b92915050565b81835281816020850137506000828201602090810191909152601f909101601f19169091010190565b85815260606020820152600061356d60608301868861352a565b828103604084015261358081858761352a565b98975050505050505050565b60208082526010908201526f105b1c9958591e48185c1c1c9bdd995960821b604082015260600190565b67ffffffffffffffff8311156135ce576135ce613350565b6135e2836135dc835461337c565b83613403565b6000601f84116001811461361657600085156135fe5750838201355b600019600387901b1c1916600186901b17835561344a565b600083815260209020601f19861690835b828110156136475786850135825560209485019460019092019101613627565b50868210156136645760001960f88860031b161c19848701351681555b505060018560011b0183555050505050565b8381526040602082015260006130f260408301848661352a565b602080825260129082015271105b1c9958591e481c9959da5cdd195c995960721b60408201526060019056fea2646970667358221220e28b652645cf2154bff0d07332dbc15814a4a6d0982a1b49d9ae5e11fed06e1564736f6c634300081c0033",
  "linkReferences": {},
  "deployedLinkReferences": {}
}